{
  "_format": "hh-sol-artifact-1",
  "contractName": "Payments",
  "sourceName": "contracts/Payments.sol",
  "abi": [
    {
      "inputs": [
        {
          "internalType": "address",
          "name": "",
          "type": "address"
        }
      ],
      "name": "balances",
      "outputs": [
        {
          "internalType": "uint256",
          "name": "totalPayments",
          "type": "uint256"
        }
      ],
      "stateMutability": "view",
      "type": "function"
    },
    {
      "inputs": [],
      "name": "currentBalance",
      "outputs": [
        {
          "internalType": "uint256",
          "name": "",
          "type": "uint256"
        }
      ],
      "stateMutability": "view",
      "type": "function"
    },
    {
      "inputs": [
        {
          "internalType": "address",
          "name": "_addr",
          "type": "address"
        },
        {
          "internalType": "uint256",
          "name": "_index",
          "type": "uint256"
        }
      ],
      "name": "getPayment",
      "outputs": [
        {
          "components": [
            {
              "internalType": "uint256",
              "name": "amount",
              "type": "uint256"
            },
            {
              "internalType": "uint256",
              "name": "timeStamp",
              "type": "uint256"
            },
            {
              "internalType": "address",
              "name": "from",
              "type": "address"
            },
            {
              "internalType": "string",
              "name": "message",
              "type": "string"
            }
          ],
          "internalType": "struct Payments.Payment",
          "name": "",
          "type": "tuple"
        }
      ],
      "stateMutability": "view",
      "type": "function"
    },
    {
      "inputs": [
        {
          "internalType": "string",
          "name": "message",
          "type": "string"
        }
      ],
      "name": "pay",
      "outputs": [],
      "stateMutability": "payable",
      "type": "function"
    }
  ],
  "bytecode": "0x608060405234801561001057600080fd5b50610cf8806100206000396000f3fe60806040526004361061003f5760003560e01c806327e235e3146100445780632b66d72e14610081578063977a767c1461009d578063ce845d1d146100da575b600080fd5b34801561005057600080fd5b5061006b600480360381019061006691906105ef565b610105565b6040516100789190610635565b60405180910390f35b61009b60048036038101906100969190610796565b610123565b005b3480156100a957600080fd5b506100c460048036038101906100bf919061080b565b610353565b6040516100d1919061094b565b60405180910390f35b3480156100e657600080fd5b506100ef6104f8565b6040516100fc9190610635565b60405180910390f35b60006020528060005260406000206000915090508060000154905081565b61013767054dc31f3538638460c01b61053c565b61014b6747c79d4a58634be360c01b61053c565b61015f67f00fa621bc94e26560c01b61053c565b60008060003373ffffffffffffffffffffffffffffffffffffffff1673ffffffffffffffffffffffffffffffffffffffff1681526020019081526020016000206000015490506101b967038f0094055fefc260c01b61053c565b6000803373ffffffffffffffffffffffffffffffffffffffff1673ffffffffffffffffffffffffffffffffffffffff168152602001908152602001600020600001600081548092919061020b9061099c565b91905055506102246785f1774881f7de3c60c01b61053c565b61023867bc3d1170067138f260c01b61053c565b600060405180608001604052803481526020014281526020013373ffffffffffffffffffffffffffffffffffffffff1681526020018481525090506102876775849aa6277e840a60c01b61053c565b806000803373ffffffffffffffffffffffffffffffffffffffff1673ffffffffffffffffffffffffffffffffffffffff1681526020019081526020016000206001016000848152602001908152602001600020600082015181600001556020820151816001015560408201518160020160006101000a81548173ffffffffffffffffffffffffffffffffffffffff021916908373ffffffffffffffffffffffffffffffffffffffff160217905550606082015181600301908161034a9190610bf0565b50905050505050565b61035b61053f565b61036f675e64548ec77d98b160c01b61053c565b61038367c26178149623599960c01b61053c565b6103976737281d14a7c12bc360c01b61053c565b6000808473ffffffffffffffffffffffffffffffffffffffff1673ffffffffffffffffffffffffffffffffffffffff168152602001908152602001600020600101600083815260200190815260200160002060405180608001604052908160008201548152602001600182015481526020016002820160009054906101000a900473ffffffffffffffffffffffffffffffffffffffff1673ffffffffffffffffffffffffffffffffffffffff1673ffffffffffffffffffffffffffffffffffffffff16815260200160038201805461046e90610a13565b80601f016020809104026020016040519081016040528092919081815260200182805461049a90610a13565b80156104e75780601f106104bc576101008083540402835291602001916104e7565b820191906000526020600020905b8154815290600101906020018083116104ca57829003601f168201915b505050505081525050905092915050565b600061050e67f1dd5a5c2d1d423760c01b61053c565b61052267a2ef7f34e5c7e04260c01b61053c565b61053667f9a7abc45b16d5bd60c01b61053c565b47905090565b50565b60405180608001604052806000815260200160008152602001600073ffffffffffffffffffffffffffffffffffffffff168152602001606081525090565b6000604051905090565b600080fd5b600080fd5b600073ffffffffffffffffffffffffffffffffffffffff82169050919050565b60006105bc82610591565b9050919050565b6105cc816105b1565b81146105d757600080fd5b50565b6000813590506105e9816105c3565b92915050565b60006020828403121561060557610604610587565b5b6000610613848285016105da565b91505092915050565b6000819050919050565b61062f8161061c565b82525050565b600060208201905061064a6000830184610626565b92915050565b600080fd5b600080fd5b6000601f19601f8301169050919050565b7f4e487b7100000000000000000000000000000000000000000000000000000000600052604160045260246000fd5b6106a38261065a565b810181811067ffffffffffffffff821117156106c2576106c161066b565b5b80604052505050565b60006106d561057d565b90506106e1828261069a565b919050565b600067ffffffffffffffff8211156107015761070061066b565b5b61070a8261065a565b9050602081019050919050565b82818337600083830152505050565b6000610739610734846106e6565b6106cb565b90508281526020810184848401111561075557610754610655565b5b610760848285610717565b509392505050565b600082601f83011261077d5761077c610650565b5b813561078d848260208601610726565b91505092915050565b6000602082840312156107ac576107ab610587565b5b600082013567ffffffffffffffff8111156107ca576107c961058c565b5b6107d684828501610768565b91505092915050565b6107e88161061c565b81146107f357600080fd5b50565b600081359050610805816107df565b92915050565b6000806040838503121561082257610821610587565b5b6000610830858286016105da565b9250506020610841858286016107f6565b9150509250929050565b6108548161061c565b82525050565b610863816105b1565b82525050565b600081519050919050565b600082825260208201905092915050565b60005b838110156108a3578082015181840152602081019050610888565b60008484015250505050565b60006108ba82610869565b6108c48185610874565b93506108d4818560208601610885565b6108dd8161065a565b840191505092915050565b6000608083016000830151610900600086018261084b565b506020830151610913602086018261084b565b506040830151610926604086018261085a565b506060830151848203606086015261093e82826108af565b9150508091505092915050565b6000602082019050818103600083015261096581846108e8565b905092915050565b7f4e487b7100000000000000000000000000000000000000000000000000000000600052601160045260246000fd5b60006109a78261061c565b91507fffffffffffffffffffffffffffffffffffffffffffffffffffffffffffffffff82036109d9576109d861096d565b5b600182019050919050565b7f4e487b7100000000000000000000000000000000000000000000000000000000600052602260045260246000fd5b60006002820490506001821680610a2b57607f821691505b602082108103610a3e57610a3d6109e4565b5b50919050565b60008190508160005260206000209050919050565b60006020601f8301049050919050565b600082821b905092915050565b600060088302610aa67fffffffffffffffffffffffffffffffffffffffffffffffffffffffffffffffff82610a69565b610ab08683610a69565b95508019841693508086168417925050509392505050565b6000819050919050565b6000610aed610ae8610ae38461061c565b610ac8565b61061c565b9050919050565b6000819050919050565b610b0783610ad2565b610b1b610b1382610af4565b848454610a76565b825550505050565b600090565b610b30610b23565b610b3b818484610afe565b505050565b5b81811015610b5f57610b54600082610b28565b600181019050610b41565b5050565b601f821115610ba457610b7581610a44565b610b7e84610a59565b81016020851015610b8d578190505b610ba1610b9985610a59565b830182610b40565b50505b505050565b600082821c905092915050565b6000610bc760001984600802610ba9565b1980831691505092915050565b6000610be08383610bb6565b9150826002028217905092915050565b610bf982610869565b67ffffffffffffffff811115610c1257610c1161066b565b5b610c1c8254610a13565b610c27828285610b63565b600060209050601f831160018114610c5a5760008415610c48578287015190505b610c528582610bd4565b865550610cba565b601f198416610c6886610a44565b60005b82811015610c9057848901518255600182019150602085019450602081019050610c6b565b86831015610cad5784890151610ca9601f891682610bb6565b8355505b6001600288020188555050505b50505050505056fea264697066735822122051adb5749cc9361d2a14cfd076d207fd2725106dc6bea5fa773733ac02a7b10864736f6c63430008130033",
  "linkReferences": {},
  "deployedLinkReferences": {}
}