{"contracts/AucEngine.sol":{"AucEngine":{"abi":[{"inputs":[],"stateMutability":"nonpayable","type":"constructor"},{"anonymous":false,"inputs":[{"indexed":false,"internalType":"uint256","name":"index","type":"uint256"},{"indexed":false,"internalType":"string","name":"itemName","type":"string"},{"indexed":false,"internalType":"uint256","name":"startingPrice","type":"uint256"},{"indexed":false,"internalType":"uint256","name":"duration","type":"uint256"}],"name":"AuctionCreated","type":"event"},{"anonymous":false,"inputs":[{"indexed":false,"internalType":"uint256","name":"index","type":"uint256"},{"indexed":false,"internalType":"uint256","name":"finalPrice","type":"uint256"},{"indexed":false,"internalType":"address","name":"winner","type":"address"}],"name":"AuctionEnded","type":"event"},{"inputs":[{"internalType":"uint256","name":"","type":"uint256"}],"name":"auctions","outputs":[{"internalType":"address payable","name":"seller","type":"address"},{"internalType":"uint256","name":"startingPrice","type":"uint256"},{"internalType":"uint256","name":"finalPrice","type":"uint256"},{"internalType":"uint256","name":"startAt","type":"uint256"},{"internalType":"uint256","name":"endsAt","type":"uint256"},{"internalType":"uint256","name":"discountRate","type":"uint256"},{"internalType":"string","name":"item","type":"string"},{"internalType":"bool","name":"stopped","type":"bool"}],"stateMutability":"view","type":"function"},{"inputs":[{"internalType":"uint256","name":"index","type":"uint256"}],"name":"buy","outputs":[],"stateMutability":"payable","type":"function"},{"inputs":[{"internalType":"uint256","name":"_startingPrice","type":"uint256"},{"internalType":"uint256","name":"_discountRate","type":"uint256"},{"internalType":"string","name":"_item","type":"string"},{"internalType":"uint256","name":"_duration","type":"uint256"}],"name":"createAuction","outputs":[],"stateMutability":"nonpayable","type":"function"},{"inputs":[{"internalType":"uint256","name":"index","type":"uint256"}],"name":"getPriceFor","outputs":[{"internalType":"uint256","name":"","type":"uint256"}],"stateMutability":"view","type":"function"},{"inputs":[],"name":"owner","outputs":[{"internalType":"address","name":"","type":"address"}],"stateMutability":"view","type":"function"}],"evm":{"bytecode":{"linkReferences":{},"object":"608060405234801561001057600080fd5b5061002b677c1e64ecb33764bd60c01b61008a60201b60201c565b61004567f69e2e9d89c9547b60c01b61008a60201b60201c565b336000806101000a81548173ffffffffffffffffffffffffffffffffffffffff021916908373ffffffffffffffffffffffffffffffffffffffff16021790555061008d565b50565b6118378061009c6000396000f3fe60806040526004361061004a5760003560e01c80634534cd9c1461004f578063571a26a01461008c5780638da5cb5b146100d0578063d96a094a146100fb578063e9835d1514610117575b600080fd5b34801561005b57600080fd5b5061007660048036038101906100719190610dcc565b610140565b6040516100839190610e08565b60405180910390f35b34801561009857600080fd5b506100b360048036038101906100ae9190610dcc565b610434565b6040516100c7989796959493929190610f0f565b60405180910390f35b3480156100dc57600080fd5b506100e5610541565b6040516100f29190610fb5565b60405180910390f35b61011560048036038101906101109190610dcc565b610565565b005b34801561012357600080fd5b5061013e60048036038101906101399190611105565b610a3a565b005b6000610156673c415e0c3755b3fe60c01b610d6d565b61016a67bf479f3d1cad6f9460c01b610d6d565b61017e673291337f8c82e75560c01b610d6d565b60006001838154811061019457610193611188565b5b9060005260206000209060080201604051806101000160405290816000820160009054906101000a900473ffffffffffffffffffffffffffffffffffffffff1673ffffffffffffffffffffffffffffffffffffffff1673ffffffffffffffffffffffffffffffffffffffff1681526020016001820154815260200160028201548152602001600382015481526020016004820154815260200160058201548152602001600682018054610246906111e6565b80601f0160208091040260200160405190810160405280929190818152602001828054610272906111e6565b80156102bf5780601f10610294576101008083540402835291602001916102bf565b820191906000526020600020905b8154815290600101906020018083116102a257829003601f168201915b505050505081526020016007820160009054906101000a900460ff16151515158152505090506102f967978a351c6999694f60c01b610d6d565b61030d677d05f211cd35090f60c01b610d6d565b610321679280ca18c82fbed060c01b610d6d565b8060e0015115610366576040517f08c379a000000000000000000000000000000000000000000000000000000000815260040161035d90611263565b60405180910390fd5b61037a678fd01f31a1061c3260c01b610d6d565b61038e67d76941c6e2c71ca860c01b610d6d565b6103a267e1e980a8e919a9cf60c01b610d6d565b60008160600151426103b491906112b2565b90506103ca67fbcfae6b4af40a1160c01b610d6d565b6103de6715ea51e7a76e4f6e60c01b610d6d565b6000818360a001516103f091906112e6565b905061040667d7c24c18b261a73b60c01b610d6d565b61041a675ac59d57bf2287fb60c01b610d6d565b80836020015161042a91906112b2565b9350505050919050565b6001818154811061044457600080fd5b90600052602060002090600802016000915090508060000160009054906101000a900473ffffffffffffffffffffffffffffffffffffffff16908060010154908060020154908060030154908060040154908060050154908060060180546104ab906111e6565b80601f01602080910402602001604051908101604052809291908181526020018280546104d7906111e6565b80156105245780601f106104f957610100808354040283529160200191610524565b820191906000526020600020905b81548152906001019060200180831161050757829003601f168201915b5050505050908060070160009054906101000a900460ff16905088565b60008054906101000a900473ffffffffffffffffffffffffffffffffffffffff1681565b610579670561238897d60f9560c01b610d6d565b61058d670a9f12841831ae3b60c01b610d6d565b6105a167d6cc090acc8cb95d60c01b610d6d565b6000600182815481106105b7576105b6611188565b5b906000526020600020906008020190506105db6759782210b419a3d860c01b610d6d565b6105ef67d597dc21e830ba3b60c01b610d6d565b61060367734aa11d7fa688fb60c01b610d6d565b8060070160009054906101000a900460ff1615610655576040517f08c379a000000000000000000000000000000000000000000000000000000000815260040161064c90611263565b60405180910390fd5b6106696744c42ed1782bbc5b60c01b610d6d565b61067d671db9f766363b979d60c01b610d6d565b610691676caf2d1de02e427d60c01b610d6d565b6106a5676b0dd10e684fc44860c01b610d6d565b806004015442106106eb576040517f08c379a00000000000000000000000000000000000000000000000000000000081526004016106e290611374565b60405180910390fd5b6106ff67865ced64c880b46160c01b610d6d565b610713674e09b14134bc73d460c01b610d6d565b61072767cd2419236da0ae5160c01b610d6d565b600061073283610140565b905061074867b2d6f289f4e1d1c560c01b610d6d565b61075c677f0dfc2d8e6d3df160c01b610d6d565b61077067bccf8ef7699545e160c01b610d6d565b803410156107b3576040517f08c379a00000000000000000000000000000000000000000000000000000000081526004016107aa906113e0565b60405180910390fd5b6107c767cab996597157f9f760c01b610d6d565b6107db67a72b02c3176a5c9a60c01b610d6d565b60018260070160006101000a81548160ff02191690831515021790555061080c678623de584adb8a8a60c01b610d6d565b80826002018190555061082967087b15c866fcd62960c01b610d6d565b61083d6768a05e7e1511990460c01b610d6d565b6000813461084b91906112b2565b90506108616752784fcf509613c860c01b610d6d565b610875670ab1ec0a395f92cb60c01b610d6d565b60008111156109065761089267053664789810bf8260c01b610d6d565b6108a66787c81f5aac1d628260c01b610d6d565b6108ba67d241e5054eee4b4360c01b610d6d565b3373ffffffffffffffffffffffffffffffffffffffff166108fc829081150290604051600060405180830381858888f19350505050158015610900573d6000803e3d6000fd5b5061091b565b61091a67250c9b06a6818cbd60c01b610d6d565b5b61092f6764ae5aa6c0c639e460c01b610d6d565b6109436721c29b195454ce6860c01b610d6d565b8260000160009054906101000a900473ffffffffffffffffffffffffffffffffffffffff1673ffffffffffffffffffffffffffffffffffffffff166108fc6064600a8561099091906112e6565b61099a919061142f565b846109a591906112b2565b9081150290604051600060405180830381858888f193505050501580156109d0573d6000803e3d6000fd5b506109e567b594cf8245f95bfe60c01b610d6d565b6109f967ba8f591fa31f6e4d60c01b610d6d565b7fbafc4bda865d4d1f8d5b16f883e996fde0fe71112fac81503876d35375694400848333604051610a2c93929190611460565b60405180910390a150505050565b610a4e675d4ee16ba71d243560c01b610d6d565b610a6267b6418a5023e96b5460c01b610d6d565b610a7667ecdecad620aa833560c01b610d6d565b60008082148015610a975750610a966710c1f49268fa442560c01b610d70565b5b80610ab25750610ab1676ed02d28eddd629d60c01b610d7b565b5b610abc5781610ac1565b6202a3005b9050610ad7674cf775bf7c1e9bb060c01b610d6d565b610aeb67cee896e07aa70ad160c01b610d6d565b610aff67cf5532182ee1f47c60c01b610d6d565b8084610b0b91906112e6565b851015610b4d576040517f08c379a0000000000000000000000000000000000000000000000000000000008152600401610b44906114e3565b60405180910390fd5b610b6167a60f5e2a59db020660c01b610d6d565b610b75672ca309b7c4e92fb860c01b610d6d565b610b896758a42fd86365ebdc60c01b610d6d565b60006040518061010001604052803373ffffffffffffffffffffffffffffffffffffffff1681526020018781526020018781526020014281526020018342610bd19190611503565b8152602001868152602001858152602001600015158152509050610bff674bb5af7143dc8a3360c01b610d6d565b610c1367e93e5abe66c7879c60c01b610d6d565b600181908060018154018082558091505060019003906000526020600020906008020160009091909190915060008201518160000160006101000a81548173ffffffffffffffffffffffffffffffffffffffff021916908373ffffffffffffffffffffffffffffffffffffffff1602179055506020820151816001015560408201518160020155606082015181600301556080820151816004015560a0820151816005015560c0820151816006019081610ccd91906116e3565b5060e08201518160070160006101000a81548160ff0219169083151502179055505050610d04670b70e071aceb005c60c01b610d6d565b610d18672928b17ed7da883c60c01b610d6d565b7f5bf34ed94988e5dcdc7d1faaa54eb1d3b55f45d5f11457e235afb21a8ebbe73c60018080549050610d4a91906112b2565b858885604051610d5d94939291906117b5565b60405180910390a1505050505050565b50565b600060019050919050565b6000919050565b6000604051905090565b600080fd5b600080fd5b6000819050919050565b610da981610d96565b8114610db457600080fd5b50565b600081359050610dc681610da0565b92915050565b600060208284031215610de257610de1610d8c565b5b6000610df084828501610db7565b91505092915050565b610e0281610d96565b82525050565b6000602082019050610e1d6000830184610df9565b92915050565b600073ffffffffffffffffffffffffffffffffffffffff82169050919050565b6000610e4e82610e23565b9050919050565b610e5e81610e43565b82525050565b600081519050919050565b600082825260208201905092915050565b60005b83811015610e9e578082015181840152602081019050610e83565b60008484015250505050565b6000601f19601f8301169050919050565b6000610ec682610e64565b610ed08185610e6f565b9350610ee0818560208601610e80565b610ee981610eaa565b840191505092915050565b60008115159050919050565b610f0981610ef4565b82525050565b600061010082019050610f25600083018b610e55565b610f32602083018a610df9565b610f3f6040830189610df9565b610f4c6060830188610df9565b610f596080830187610df9565b610f6660a0830186610df9565b81810360c0830152610f788185610ebb565b9050610f8760e0830184610f00565b9998505050505050505050565b6000610f9f82610e23565b9050919050565b610faf81610f94565b82525050565b6000602082019050610fca6000830184610fa6565b92915050565b600080fd5b600080fd5b7f4e487b7100000000000000000000000000000000000000000000000000000000600052604160045260246000fd5b61101282610eaa565b810181811067ffffffffffffffff8211171561103157611030610fda565b5b80604052505050565b6000611044610d82565b90506110508282611009565b919050565b600067ffffffffffffffff8211156110705761106f610fda565b5b61107982610eaa565b9050602081019050919050565b82818337600083830152505050565b60006110a86110a384611055565b61103a565b9050828152602081018484840111156110c4576110c3610fd5565b5b6110cf848285611086565b509392505050565b600082601f8301126110ec576110eb610fd0565b5b81356110fc848260208601611095565b91505092915050565b6000806000806080858703121561111f5761111e610d8c565b5b600061112d87828801610db7565b945050602061113e87828801610db7565b935050604085013567ffffffffffffffff81111561115f5761115e610d91565b5b61116b878288016110d7565b925050606061117c87828801610db7565b91505092959194509250565b7f4e487b7100000000000000000000000000000000000000000000000000000000600052603260045260246000fd5b7f4e487b7100000000000000000000000000000000000000000000000000000000600052602260045260246000fd5b600060028204905060018216806111fe57607f821691505b602082108103611211576112106111b7565b5b50919050565b7f73746f7070656421000000000000000000000000000000000000000000000000600082015250565b600061124d600883610e6f565b915061125882611217565b602082019050919050565b6000602082019050818103600083015261127c81611240565b9050919050565b7f4e487b7100000000000000000000000000000000000000000000000000000000600052601160045260246000fd5b60006112bd82610d96565b91506112c883610d96565b92508282039050818111156112e0576112df611283565b5b92915050565b60006112f182610d96565b91506112fc83610d96565b925082820261130a81610d96565b9150828204841483151761132157611320611283565b5b5092915050565b7f656e646564210000000000000000000000000000000000000000000000000000600082015250565b600061135e600683610e6f565b915061136982611328565b602082019050919050565b6000602082019050818103600083015261138d81611351565b9050919050565b7f6e6f7420656e6f7567682066756e647321000000000000000000000000000000600082015250565b60006113ca601183610e6f565b91506113d582611394565b602082019050919050565b600060208201905081810360008301526113f9816113bd565b9050919050565b7f4e487b7100000000000000000000000000000000000000000000000000000000600052601260045260246000fd5b600061143a82610d96565b915061144583610d96565b92508261145557611454611400565b5b828204905092915050565b60006060820190506114756000830186610df9565b6114826020830185610df9565b61148f6040830184610fa6565b949350505050565b7f496e636f72726563742073617472696e67202070726963650000000000000000600082015250565b60006114cd601883610e6f565b91506114d882611497565b602082019050919050565b600060208201905081810360008301526114fc816114c0565b9050919050565b600061150e82610d96565b915061151983610d96565b925082820190508082111561153157611530611283565b5b92915050565b60008190508160005260206000209050919050565b60006020601f8301049050919050565b600082821b905092915050565b6000600883026115997fffffffffffffffffffffffffffffffffffffffffffffffffffffffffffffffff8261155c565b6115a3868361155c565b95508019841693508086168417925050509392505050565b6000819050919050565b60006115e06115db6115d684610d96565b6115bb565b610d96565b9050919050565b6000819050919050565b6115fa836115c5565b61160e611606826115e7565b848454611569565b825550505050565b600090565b611623611616565b61162e8184846115f1565b505050565b5b818110156116525761164760008261161b565b600181019050611634565b5050565b601f8211156116975761166881611537565b6116718461154c565b81016020851015611680578190505b61169461168c8561154c565b830182611633565b50505b505050565b600082821c905092915050565b60006116ba6000198460080261169c565b1980831691505092915050565b60006116d383836116a9565b9150826002028217905092915050565b6116ec82610e64565b67ffffffffffffffff81111561170557611704610fda565b5b61170f82546111e6565b61171a828285611656565b600060209050601f83116001811461174d576000841561173b578287015190505b61174585826116c7565b8655506117ad565b601f19841661175b86611537565b60005b828110156117835784890151825560018201915060208501945060208101905061175e565b868310156117a0578489015161179c601f8916826116a9565b8355505b6001600288020188555050505b505050505050565b60006080820190506117ca6000830187610df9565b81810360208301526117dc8186610ebb565b90506117eb6040830185610df9565b6117f86060830184610df9565b9594505050505056fea2646970667358221220c826274ea33c737ec39382363831815b4e2cc1325291fa510209b3d9bc6b85e964736f6c63430008130033","opcodes":"PUSH1 0x80 PUSH1 0x40 MSTORE CALLVALUE DUP1 ISZERO PUSH2 0x10 JUMPI PUSH1 0x0 DUP1 REVERT JUMPDEST POP PUSH2 0x2B PUSH8 0x7C1E64ECB33764BD PUSH1 0xC0 SHL PUSH2 0x8A PUSH1 0x20 SHL PUSH1 0x20 SHR JUMP JUMPDEST PUSH2 0x45 PUSH8 0xF69E2E9D89C9547B PUSH1 0xC0 SHL PUSH2 0x8A PUSH1 0x20 SHL PUSH1 0x20 SHR JUMP JUMPDEST CALLER PUSH1 0x0 DUP1 PUSH2 0x100 EXP DUP2 SLOAD DUP2 PUSH20 0xFFFFFFFFFFFFFFFFFFFFFFFFFFFFFFFFFFFFFFFF MUL NOT AND SWAP1 DUP4 PUSH20 0xFFFFFFFFFFFFFFFFFFFFFFFFFFFFFFFFFFFFFFFF AND MUL OR SWAP1 SSTORE POP PUSH2 0x8D JUMP JUMPDEST POP JUMP JUMPDEST PUSH2 0x1837 DUP1 PUSH2 0x9C PUSH1 0x0 CODECOPY PUSH1 0x0 RETURN INVALID PUSH1 0x80 PUSH1 0x40 MSTORE PUSH1 0x4 CALLDATASIZE LT PUSH2 0x4A JUMPI PUSH1 0x0 CALLDATALOAD PUSH1 0xE0 SHR DUP1 PUSH4 0x4534CD9C EQ PUSH2 0x4F JUMPI DUP1 PUSH4 0x571A26A0 EQ PUSH2 0x8C JUMPI DUP1 PUSH4 0x8DA5CB5B EQ PUSH2 0xD0 JUMPI DUP1 PUSH4 0xD96A094A EQ PUSH2 0xFB JUMPI DUP1 PUSH4 0xE9835D15 EQ PUSH2 0x117 JUMPI JUMPDEST PUSH1 0x0 DUP1 REVERT JUMPDEST CALLVALUE DUP1 ISZERO PUSH2 0x5B JUMPI PUSH1 0x0 DUP1 REVERT JUMPDEST POP PUSH2 0x76 PUSH1 0x4 DUP1 CALLDATASIZE SUB DUP2 ADD SWAP1 PUSH2 0x71 SWAP2 SWAP1 PUSH2 0xDCC JUMP JUMPDEST PUSH2 0x140 JUMP JUMPDEST PUSH1 0x40 MLOAD PUSH2 0x83 SWAP2 SWAP1 PUSH2 0xE08 JUMP JUMPDEST PUSH1 0x40 MLOAD DUP1 SWAP2 SUB SWAP1 RETURN JUMPDEST CALLVALUE DUP1 ISZERO PUSH2 0x98 JUMPI PUSH1 0x0 DUP1 REVERT JUMPDEST POP PUSH2 0xB3 PUSH1 0x4 DUP1 CALLDATASIZE SUB DUP2 ADD SWAP1 PUSH2 0xAE SWAP2 SWAP1 PUSH2 0xDCC JUMP JUMPDEST PUSH2 0x434 JUMP JUMPDEST PUSH1 0x40 MLOAD PUSH2 0xC7 SWAP9 SWAP8 SWAP7 SWAP6 SWAP5 SWAP4 SWAP3 SWAP2 SWAP1 PUSH2 0xF0F JUMP JUMPDEST PUSH1 0x40 MLOAD DUP1 SWAP2 SUB SWAP1 RETURN JUMPDEST CALLVALUE DUP1 ISZERO PUSH2 0xDC JUMPI PUSH1 0x0 DUP1 REVERT JUMPDEST POP PUSH2 0xE5 PUSH2 0x541 JUMP JUMPDEST PUSH1 0x40 MLOAD PUSH2 0xF2 SWAP2 SWAP1 PUSH2 0xFB5 JUMP JUMPDEST PUSH1 0x40 MLOAD DUP1 SWAP2 SUB SWAP1 RETURN JUMPDEST PUSH2 0x115 PUSH1 0x4 DUP1 CALLDATASIZE SUB DUP2 ADD SWAP1 PUSH2 0x110 SWAP2 SWAP1 PUSH2 0xDCC JUMP JUMPDEST PUSH2 0x565 JUMP JUMPDEST STOP JUMPDEST CALLVALUE DUP1 ISZERO PUSH2 0x123 JUMPI PUSH1 0x0 DUP1 REVERT JUMPDEST POP PUSH2 0x13E PUSH1 0x4 DUP1 CALLDATASIZE SUB DUP2 ADD SWAP1 PUSH2 0x139 SWAP2 SWAP1 PUSH2 0x1105 JUMP JUMPDEST PUSH2 0xA3A JUMP JUMPDEST STOP JUMPDEST PUSH1 0x0 PUSH2 0x156 PUSH8 0x3C415E0C3755B3FE PUSH1 0xC0 SHL PUSH2 0xD6D JUMP JUMPDEST PUSH2 0x16A PUSH8 0xBF479F3D1CAD6F94 PUSH1 0xC0 SHL PUSH2 0xD6D JUMP JUMPDEST PUSH2 0x17E PUSH8 0x3291337F8C82E755 PUSH1 0xC0 SHL PUSH2 0xD6D JUMP JUMPDEST PUSH1 0x0 PUSH1 0x1 DUP4 DUP2 SLOAD DUP2 LT PUSH2 0x194 JUMPI PUSH2 0x193 PUSH2 0x1188 JUMP JUMPDEST JUMPDEST SWAP1 PUSH1 0x0 MSTORE PUSH1 0x20 PUSH1 0x0 KECCAK256 SWAP1 PUSH1 0x8 MUL ADD PUSH1 0x40 MLOAD DUP1 PUSH2 0x100 ADD PUSH1 0x40 MSTORE SWAP1 DUP2 PUSH1 0x0 DUP3 ADD PUSH1 0x0 SWAP1 SLOAD SWAP1 PUSH2 0x100 EXP SWAP1 DIV PUSH20 0xFFFFFFFFFFFFFFFFFFFFFFFFFFFFFFFFFFFFFFFF AND PUSH20 0xFFFFFFFFFFFFFFFFFFFFFFFFFFFFFFFFFFFFFFFF AND PUSH20 0xFFFFFFFFFFFFFFFFFFFFFFFFFFFFFFFFFFFFFFFF AND DUP2 MSTORE PUSH1 0x20 ADD PUSH1 0x1 DUP3 ADD SLOAD DUP2 MSTORE PUSH1 0x20 ADD PUSH1 0x2 DUP3 ADD SLOAD DUP2 MSTORE PUSH1 0x20 ADD PUSH1 0x3 DUP3 ADD SLOAD DUP2 MSTORE PUSH1 0x20 ADD PUSH1 0x4 DUP3 ADD SLOAD DUP2 MSTORE PUSH1 0x20 ADD PUSH1 0x5 DUP3 ADD SLOAD DUP2 MSTORE PUSH1 0x20 ADD PUSH1 0x6 DUP3 ADD DUP1 SLOAD PUSH2 0x246 SWAP1 PUSH2 0x11E6 JUMP JUMPDEST DUP1 PUSH1 0x1F ADD PUSH1 0x20 DUP1 SWAP2 DIV MUL PUSH1 0x20 ADD PUSH1 0x40 MLOAD SWAP1 DUP2 ADD PUSH1 0x40 MSTORE DUP1 SWAP3 SWAP2 SWAP1 DUP2 DUP2 MSTORE PUSH1 0x20 ADD DUP3 DUP1 SLOAD PUSH2 0x272 SWAP1 PUSH2 0x11E6 JUMP JUMPDEST DUP1 ISZERO PUSH2 0x2BF JUMPI DUP1 PUSH1 0x1F LT PUSH2 0x294 JUMPI PUSH2 0x100 DUP1 DUP4 SLOAD DIV MUL DUP4 MSTORE SWAP2 PUSH1 0x20 ADD SWAP2 PUSH2 0x2BF JUMP JUMPDEST DUP3 ADD SWAP2 SWAP1 PUSH1 0x0 MSTORE PUSH1 0x20 PUSH1 0x0 KECCAK256 SWAP1 JUMPDEST DUP2 SLOAD DUP2 MSTORE SWAP1 PUSH1 0x1 ADD SWAP1 PUSH1 0x20 ADD DUP1 DUP4 GT PUSH2 0x2A2 JUMPI DUP3 SWAP1 SUB PUSH1 0x1F AND DUP3 ADD SWAP2 JUMPDEST POP POP POP POP POP DUP2 MSTORE PUSH1 0x20 ADD PUSH1 0x7 DUP3 ADD PUSH1 0x0 SWAP1 SLOAD SWAP1 PUSH2 0x100 EXP SWAP1 DIV PUSH1 0xFF AND ISZERO ISZERO ISZERO ISZERO DUP2 MSTORE POP POP SWAP1 POP PUSH2 0x2F9 PUSH8 0x978A351C6999694F PUSH1 0xC0 SHL PUSH2 0xD6D JUMP JUMPDEST PUSH2 0x30D PUSH8 0x7D05F211CD35090F PUSH1 0xC0 SHL PUSH2 0xD6D JUMP JUMPDEST PUSH2 0x321 PUSH8 0x9280CA18C82FBED0 PUSH1 0xC0 SHL PUSH2 0xD6D JUMP JUMPDEST DUP1 PUSH1 0xE0 ADD MLOAD ISZERO PUSH2 0x366 JUMPI PUSH1 0x40 MLOAD PUSH32 0x8C379A000000000000000000000000000000000000000000000000000000000 DUP2 MSTORE PUSH1 0x4 ADD PUSH2 0x35D SWAP1 PUSH2 0x1263 JUMP JUMPDEST PUSH1 0x40 MLOAD DUP1 SWAP2 SUB SWAP1 REVERT JUMPDEST PUSH2 0x37A PUSH8 0x8FD01F31A1061C32 PUSH1 0xC0 SHL PUSH2 0xD6D JUMP JUMPDEST PUSH2 0x38E PUSH8 0xD76941C6E2C71CA8 PUSH1 0xC0 SHL PUSH2 0xD6D JUMP JUMPDEST PUSH2 0x3A2 PUSH8 0xE1E980A8E919A9CF PUSH1 0xC0 SHL PUSH2 0xD6D JUMP JUMPDEST PUSH1 0x0 DUP2 PUSH1 0x60 ADD MLOAD TIMESTAMP PUSH2 0x3B4 SWAP2 SWAP1 PUSH2 0x12B2 JUMP JUMPDEST SWAP1 POP PUSH2 0x3CA PUSH8 0xFBCFAE6B4AF40A11 PUSH1 0xC0 SHL PUSH2 0xD6D JUMP JUMPDEST PUSH2 0x3DE PUSH8 0x15EA51E7A76E4F6E PUSH1 0xC0 SHL PUSH2 0xD6D JUMP JUMPDEST PUSH1 0x0 DUP2 DUP4 PUSH1 0xA0 ADD MLOAD PUSH2 0x3F0 SWAP2 SWAP1 PUSH2 0x12E6 JUMP JUMPDEST SWAP1 POP PUSH2 0x406 PUSH8 0xD7C24C18B261A73B PUSH1 0xC0 SHL PUSH2 0xD6D JUMP JUMPDEST PUSH2 0x41A PUSH8 0x5AC59D57BF2287FB PUSH1 0xC0 SHL PUSH2 0xD6D JUMP JUMPDEST DUP1 DUP4 PUSH1 0x20 ADD MLOAD PUSH2 0x42A SWAP2 SWAP1 PUSH2 0x12B2 JUMP JUMPDEST SWAP4 POP POP POP POP SWAP2 SWAP1 POP JUMP JUMPDEST PUSH1 0x1 DUP2 DUP2 SLOAD DUP2 LT PUSH2 0x444 JUMPI PUSH1 0x0 DUP1 REVERT JUMPDEST SWAP1 PUSH1 0x0 MSTORE PUSH1 0x20 PUSH1 0x0 KECCAK256 SWAP1 PUSH1 0x8 MUL ADD PUSH1 0x0 SWAP2 POP SWAP1 POP DUP1 PUSH1 0x0 ADD PUSH1 0x0 SWAP1 SLOAD SWAP1 PUSH2 0x100 EXP SWAP1 DIV PUSH20 0xFFFFFFFFFFFFFFFFFFFFFFFFFFFFFFFFFFFFFFFF AND SWAP1 DUP1 PUSH1 0x1 ADD SLOAD SWAP1 DUP1 PUSH1 0x2 ADD SLOAD SWAP1 DUP1 PUSH1 0x3 ADD SLOAD SWAP1 DUP1 PUSH1 0x4 ADD SLOAD SWAP1 DUP1 PUSH1 0x5 ADD SLOAD SWAP1 DUP1 PUSH1 0x6 ADD DUP1 SLOAD PUSH2 0x4AB SWAP1 PUSH2 0x11E6 JUMP JUMPDEST DUP1 PUSH1 0x1F ADD PUSH1 0x20 DUP1 SWAP2 DIV MUL PUSH1 0x20 ADD PUSH1 0x40 MLOAD SWAP1 DUP2 ADD PUSH1 0x40 MSTORE DUP1 SWAP3 SWAP2 SWAP1 DUP2 DUP2 MSTORE PUSH1 0x20 ADD DUP3 DUP1 SLOAD PUSH2 0x4D7 SWAP1 PUSH2 0x11E6 JUMP JUMPDEST DUP1 ISZERO PUSH2 0x524 JUMPI DUP1 PUSH1 0x1F LT PUSH2 0x4F9 JUMPI PUSH2 0x100 DUP1 DUP4 SLOAD DIV MUL DUP4 MSTORE SWAP2 PUSH1 0x20 ADD SWAP2 PUSH2 0x524 JUMP JUMPDEST DUP3 ADD SWAP2 SWAP1 PUSH1 0x0 MSTORE PUSH1 0x20 PUSH1 0x0 KECCAK256 SWAP1 JUMPDEST DUP2 SLOAD DUP2 MSTORE SWAP1 PUSH1 0x1 ADD SWAP1 PUSH1 0x20 ADD DUP1 DUP4 GT PUSH2 0x507 JUMPI DUP3 SWAP1 SUB PUSH1 0x1F AND DUP3 ADD SWAP2 JUMPDEST POP POP POP POP POP SWAP1 DUP1 PUSH1 0x7 ADD PUSH1 0x0 SWAP1 SLOAD SWAP1 PUSH2 0x100 EXP SWAP1 DIV PUSH1 0xFF AND SWAP1 POP DUP9 JUMP JUMPDEST PUSH1 0x0 DUP1 SLOAD SWAP1 PUSH2 0x100 EXP SWAP1 DIV PUSH20 0xFFFFFFFFFFFFFFFFFFFFFFFFFFFFFFFFFFFFFFFF AND DUP2 JUMP JUMPDEST PUSH2 0x579 PUSH8 0x561238897D60F95 PUSH1 0xC0 SHL PUSH2 0xD6D JUMP JUMPDEST PUSH2 0x58D PUSH8 0xA9F12841831AE3B PUSH1 0xC0 SHL PUSH2 0xD6D JUMP JUMPDEST PUSH2 0x5A1 PUSH8 0xD6CC090ACC8CB95D PUSH1 0xC0 SHL PUSH2 0xD6D JUMP JUMPDEST PUSH1 0x0 PUSH1 0x1 DUP3 DUP2 SLOAD DUP2 LT PUSH2 0x5B7 JUMPI PUSH2 0x5B6 PUSH2 0x1188 JUMP JUMPDEST JUMPDEST SWAP1 PUSH1 0x0 MSTORE PUSH1 0x20 PUSH1 0x0 KECCAK256 SWAP1 PUSH1 0x8 MUL ADD SWAP1 POP PUSH2 0x5DB PUSH8 0x59782210B419A3D8 PUSH1 0xC0 SHL PUSH2 0xD6D JUMP JUMPDEST PUSH2 0x5EF PUSH8 0xD597DC21E830BA3B PUSH1 0xC0 SHL PUSH2 0xD6D JUMP JUMPDEST PUSH2 0x603 PUSH8 0x734AA11D7FA688FB PUSH1 0xC0 SHL PUSH2 0xD6D JUMP JUMPDEST DUP1 PUSH1 0x7 ADD PUSH1 0x0 SWAP1 SLOAD SWAP1 PUSH2 0x100 EXP SWAP1 DIV PUSH1 0xFF AND ISZERO PUSH2 0x655 JUMPI PUSH1 0x40 MLOAD PUSH32 0x8C379A000000000000000000000000000000000000000000000000000000000 DUP2 MSTORE PUSH1 0x4 ADD PUSH2 0x64C SWAP1 PUSH2 0x1263 JUMP JUMPDEST PUSH1 0x40 MLOAD DUP1 SWAP2 SUB SWAP1 REVERT JUMPDEST PUSH2 0x669 PUSH8 0x44C42ED1782BBC5B PUSH1 0xC0 SHL PUSH2 0xD6D JUMP JUMPDEST PUSH2 0x67D PUSH8 0x1DB9F766363B979D PUSH1 0xC0 SHL PUSH2 0xD6D JUMP JUMPDEST PUSH2 0x691 PUSH8 0x6CAF2D1DE02E427D PUSH1 0xC0 SHL PUSH2 0xD6D JUMP JUMPDEST PUSH2 0x6A5 PUSH8 0x6B0DD10E684FC448 PUSH1 0xC0 SHL PUSH2 0xD6D JUMP JUMPDEST DUP1 PUSH1 0x4 ADD SLOAD TIMESTAMP LT PUSH2 0x6EB JUMPI PUSH1 0x40 MLOAD PUSH32 0x8C379A000000000000000000000000000000000000000000000000000000000 DUP2 MSTORE PUSH1 0x4 ADD PUSH2 0x6E2 SWAP1 PUSH2 0x1374 JUMP JUMPDEST PUSH1 0x40 MLOAD DUP1 SWAP2 SUB SWAP1 REVERT JUMPDEST PUSH2 0x6FF PUSH8 0x865CED64C880B461 PUSH1 0xC0 SHL PUSH2 0xD6D JUMP JUMPDEST PUSH2 0x713 PUSH8 0x4E09B14134BC73D4 PUSH1 0xC0 SHL PUSH2 0xD6D JUMP JUMPDEST PUSH2 0x727 PUSH8 0xCD2419236DA0AE51 PUSH1 0xC0 SHL PUSH2 0xD6D JUMP JUMPDEST PUSH1 0x0 PUSH2 0x732 DUP4 PUSH2 0x140 JUMP JUMPDEST SWAP1 POP PUSH2 0x748 PUSH8 0xB2D6F289F4E1D1C5 PUSH1 0xC0 SHL PUSH2 0xD6D JUMP JUMPDEST PUSH2 0x75C PUSH8 0x7F0DFC2D8E6D3DF1 PUSH1 0xC0 SHL PUSH2 0xD6D JUMP JUMPDEST PUSH2 0x770 PUSH8 0xBCCF8EF7699545E1 PUSH1 0xC0 SHL PUSH2 0xD6D JUMP JUMPDEST DUP1 CALLVALUE LT ISZERO PUSH2 0x7B3 JUMPI PUSH1 0x40 MLOAD PUSH32 0x8C379A000000000000000000000000000000000000000000000000000000000 DUP2 MSTORE PUSH1 0x4 ADD PUSH2 0x7AA SWAP1 PUSH2 0x13E0 JUMP JUMPDEST PUSH1 0x40 MLOAD DUP1 SWAP2 SUB SWAP1 REVERT JUMPDEST PUSH2 0x7C7 PUSH8 0xCAB996597157F9F7 PUSH1 0xC0 SHL PUSH2 0xD6D JUMP JUMPDEST PUSH2 0x7DB PUSH8 0xA72B02C3176A5C9A PUSH1 0xC0 SHL PUSH2 0xD6D JUMP JUMPDEST PUSH1 0x1 DUP3 PUSH1 0x7 ADD PUSH1 0x0 PUSH2 0x100 EXP DUP2 SLOAD DUP2 PUSH1 0xFF MUL NOT AND SWAP1 DUP4 ISZERO ISZERO MUL OR SWAP1 SSTORE POP PUSH2 0x80C PUSH8 0x8623DE584ADB8A8A PUSH1 0xC0 SHL PUSH2 0xD6D JUMP JUMPDEST DUP1 DUP3 PUSH1 0x2 ADD DUP2 SWAP1 SSTORE POP PUSH2 0x829 PUSH8 0x87B15C866FCD629 PUSH1 0xC0 SHL PUSH2 0xD6D JUMP JUMPDEST PUSH2 0x83D PUSH8 0x68A05E7E15119904 PUSH1 0xC0 SHL PUSH2 0xD6D JUMP JUMPDEST PUSH1 0x0 DUP2 CALLVALUE PUSH2 0x84B SWAP2 SWAP1 PUSH2 0x12B2 JUMP JUMPDEST SWAP1 POP PUSH2 0x861 PUSH8 0x52784FCF509613C8 PUSH1 0xC0 SHL PUSH2 0xD6D JUMP JUMPDEST PUSH2 0x875 PUSH8 0xAB1EC0A395F92CB PUSH1 0xC0 SHL PUSH2 0xD6D JUMP JUMPDEST PUSH1 0x0 DUP2 GT ISZERO PUSH2 0x906 JUMPI PUSH2 0x892 PUSH8 0x53664789810BF82 PUSH1 0xC0 SHL PUSH2 0xD6D JUMP JUMPDEST PUSH2 0x8A6 PUSH8 0x87C81F5AAC1D6282 PUSH1 0xC0 SHL PUSH2 0xD6D JUMP JUMPDEST PUSH2 0x8BA PUSH8 0xD241E5054EEE4B43 PUSH1 0xC0 SHL PUSH2 0xD6D JUMP JUMPDEST CALLER PUSH20 0xFFFFFFFFFFFFFFFFFFFFFFFFFFFFFFFFFFFFFFFF AND PUSH2 0x8FC DUP3 SWAP1 DUP2 ISZERO MUL SWAP1 PUSH1 0x40 MLOAD PUSH1 0x0 PUSH1 0x40 MLOAD DUP1 DUP4 SUB DUP2 DUP6 DUP9 DUP9 CALL SWAP4 POP POP POP POP ISZERO DUP1 ISZERO PUSH2 0x900 JUMPI RETURNDATASIZE PUSH1 0x0 DUP1 RETURNDATACOPY RETURNDATASIZE PUSH1 0x0 REVERT JUMPDEST POP PUSH2 0x91B JUMP JUMPDEST PUSH2 0x91A PUSH8 0x250C9B06A6818CBD PUSH1 0xC0 SHL PUSH2 0xD6D JUMP JUMPDEST JUMPDEST PUSH2 0x92F PUSH8 0x64AE5AA6C0C639E4 PUSH1 0xC0 SHL PUSH2 0xD6D JUMP JUMPDEST PUSH2 0x943 PUSH8 0x21C29B195454CE68 PUSH1 0xC0 SHL PUSH2 0xD6D JUMP JUMPDEST DUP3 PUSH1 0x0 ADD PUSH1 0x0 SWAP1 SLOAD SWAP1 PUSH2 0x100 EXP SWAP1 DIV PUSH20 0xFFFFFFFFFFFFFFFFFFFFFFFFFFFFFFFFFFFFFFFF AND PUSH20 0xFFFFFFFFFFFFFFFFFFFFFFFFFFFFFFFFFFFFFFFF AND PUSH2 0x8FC PUSH1 0x64 PUSH1 0xA DUP6 PUSH2 0x990 SWAP2 SWAP1 PUSH2 0x12E6 JUMP JUMPDEST PUSH2 0x99A SWAP2 SWAP1 PUSH2 0x142F JUMP JUMPDEST DUP5 PUSH2 0x9A5 SWAP2 SWAP1 PUSH2 0x12B2 JUMP JUMPDEST SWAP1 DUP2 ISZERO MUL SWAP1 PUSH1 0x40 MLOAD PUSH1 0x0 PUSH1 0x40 MLOAD DUP1 DUP4 SUB DUP2 DUP6 DUP9 DUP9 CALL SWAP4 POP POP POP POP ISZERO DUP1 ISZERO PUSH2 0x9D0 JUMPI RETURNDATASIZE PUSH1 0x0 DUP1 RETURNDATACOPY RETURNDATASIZE PUSH1 0x0 REVERT JUMPDEST POP PUSH2 0x9E5 PUSH8 0xB594CF8245F95BFE PUSH1 0xC0 SHL PUSH2 0xD6D JUMP JUMPDEST PUSH2 0x9F9 PUSH8 0xBA8F591FA31F6E4D PUSH1 0xC0 SHL PUSH2 0xD6D JUMP JUMPDEST PUSH32 0xBAFC4BDA865D4D1F8D5B16F883E996FDE0FE71112FAC81503876D35375694400 DUP5 DUP4 CALLER PUSH1 0x40 MLOAD PUSH2 0xA2C SWAP4 SWAP3 SWAP2 SWAP1 PUSH2 0x1460 JUMP JUMPDEST PUSH1 0x40 MLOAD DUP1 SWAP2 SUB SWAP1 LOG1 POP POP POP POP JUMP JUMPDEST PUSH2 0xA4E PUSH8 0x5D4EE16BA71D2435 PUSH1 0xC0 SHL PUSH2 0xD6D JUMP JUMPDEST PUSH2 0xA62 PUSH8 0xB6418A5023E96B54 PUSH1 0xC0 SHL PUSH2 0xD6D JUMP JUMPDEST PUSH2 0xA76 PUSH8 0xECDECAD620AA8335 PUSH1 0xC0 SHL PUSH2 0xD6D JUMP JUMPDEST PUSH1 0x0 DUP1 DUP3 EQ DUP1 ISZERO PUSH2 0xA97 JUMPI POP PUSH2 0xA96 PUSH8 0x10C1F49268FA4425 PUSH1 0xC0 SHL PUSH2 0xD70 JUMP JUMPDEST JUMPDEST DUP1 PUSH2 0xAB2 JUMPI POP PUSH2 0xAB1 PUSH8 0x6ED02D28EDDD629D PUSH1 0xC0 SHL PUSH2 0xD7B JUMP JUMPDEST JUMPDEST PUSH2 0xABC JUMPI DUP2 PUSH2 0xAC1 JUMP JUMPDEST PUSH3 0x2A300 JUMPDEST SWAP1 POP PUSH2 0xAD7 PUSH8 0x4CF775BF7C1E9BB0 PUSH1 0xC0 SHL PUSH2 0xD6D JUMP JUMPDEST PUSH2 0xAEB PUSH8 0xCEE896E07AA70AD1 PUSH1 0xC0 SHL PUSH2 0xD6D JUMP JUMPDEST PUSH2 0xAFF PUSH8 0xCF5532182EE1F47C PUSH1 0xC0 SHL PUSH2 0xD6D JUMP JUMPDEST DUP1 DUP5 PUSH2 0xB0B SWAP2 SWAP1 PUSH2 0x12E6 JUMP JUMPDEST DUP6 LT ISZERO PUSH2 0xB4D JUMPI PUSH1 0x40 MLOAD PUSH32 0x8C379A000000000000000000000000000000000000000000000000000000000 DUP2 MSTORE PUSH1 0x4 ADD PUSH2 0xB44 SWAP1 PUSH2 0x14E3 JUMP JUMPDEST PUSH1 0x40 MLOAD DUP1 SWAP2 SUB SWAP1 REVERT JUMPDEST PUSH2 0xB61 PUSH8 0xA60F5E2A59DB0206 PUSH1 0xC0 SHL PUSH2 0xD6D JUMP JUMPDEST PUSH2 0xB75 PUSH8 0x2CA309B7C4E92FB8 PUSH1 0xC0 SHL PUSH2 0xD6D JUMP JUMPDEST PUSH2 0xB89 PUSH8 0x58A42FD86365EBDC PUSH1 0xC0 SHL PUSH2 0xD6D JUMP JUMPDEST PUSH1 0x0 PUSH1 0x40 MLOAD DUP1 PUSH2 0x100 ADD PUSH1 0x40 MSTORE DUP1 CALLER PUSH20 0xFFFFFFFFFFFFFFFFFFFFFFFFFFFFFFFFFFFFFFFF AND DUP2 MSTORE PUSH1 0x20 ADD DUP8 DUP2 MSTORE PUSH1 0x20 ADD DUP8 DUP2 MSTORE PUSH1 0x20 ADD TIMESTAMP DUP2 MSTORE PUSH1 0x20 ADD DUP4 TIMESTAMP PUSH2 0xBD1 SWAP2 SWAP1 PUSH2 0x1503 JUMP JUMPDEST DUP2 MSTORE PUSH1 0x20 ADD DUP7 DUP2 MSTORE PUSH1 0x20 ADD DUP6 DUP2 MSTORE PUSH1 0x20 ADD PUSH1 0x0 ISZERO ISZERO DUP2 MSTORE POP SWAP1 POP PUSH2 0xBFF PUSH8 0x4BB5AF7143DC8A33 PUSH1 0xC0 SHL PUSH2 0xD6D JUMP JUMPDEST PUSH2 0xC13 PUSH8 0xE93E5ABE66C7879C PUSH1 0xC0 SHL PUSH2 0xD6D JUMP JUMPDEST PUSH1 0x1 DUP2 SWAP1 DUP1 PUSH1 0x1 DUP2 SLOAD ADD DUP1 DUP3 SSTORE DUP1 SWAP2 POP POP PUSH1 0x1 SWAP1 SUB SWAP1 PUSH1 0x0 MSTORE PUSH1 0x20 PUSH1 0x0 KECCAK256 SWAP1 PUSH1 0x8 MUL ADD PUSH1 0x0 SWAP1 SWAP2 SWAP1 SWAP2 SWAP1 SWAP2 POP PUSH1 0x0 DUP3 ADD MLOAD DUP2 PUSH1 0x0 ADD PUSH1 0x0 PUSH2 0x100 EXP DUP2 SLOAD DUP2 PUSH20 0xFFFFFFFFFFFFFFFFFFFFFFFFFFFFFFFFFFFFFFFF MUL NOT AND SWAP1 DUP4 PUSH20 0xFFFFFFFFFFFFFFFFFFFFFFFFFFFFFFFFFFFFFFFF AND MUL OR SWAP1 SSTORE POP PUSH1 0x20 DUP3 ADD MLOAD DUP2 PUSH1 0x1 ADD SSTORE PUSH1 0x40 DUP3 ADD MLOAD DUP2 PUSH1 0x2 ADD SSTORE PUSH1 0x60 DUP3 ADD MLOAD DUP2 PUSH1 0x3 ADD SSTORE PUSH1 0x80 DUP3 ADD MLOAD DUP2 PUSH1 0x4 ADD SSTORE PUSH1 0xA0 DUP3 ADD MLOAD DUP2 PUSH1 0x5 ADD SSTORE PUSH1 0xC0 DUP3 ADD MLOAD DUP2 PUSH1 0x6 ADD SWAP1 DUP2 PUSH2 0xCCD SWAP2 SWAP1 PUSH2 0x16E3 JUMP JUMPDEST POP PUSH1 0xE0 DUP3 ADD MLOAD DUP2 PUSH1 0x7 ADD PUSH1 0x0 PUSH2 0x100 EXP DUP2 SLOAD DUP2 PUSH1 0xFF MUL NOT AND SWAP1 DUP4 ISZERO ISZERO MUL OR SWAP1 SSTORE POP POP POP PUSH2 0xD04 PUSH8 0xB70E071ACEB005C PUSH1 0xC0 SHL PUSH2 0xD6D JUMP JUMPDEST PUSH2 0xD18 PUSH8 0x2928B17ED7DA883C PUSH1 0xC0 SHL PUSH2 0xD6D JUMP JUMPDEST PUSH32 0x5BF34ED94988E5DCDC7D1FAAA54EB1D3B55F45D5F11457E235AFB21A8EBBE73C PUSH1 0x1 DUP1 DUP1 SLOAD SWAP1 POP PUSH2 0xD4A SWAP2 SWAP1 PUSH2 0x12B2 JUMP JUMPDEST DUP6 DUP9 DUP6 PUSH1 0x40 MLOAD PUSH2 0xD5D SWAP5 SWAP4 SWAP3 SWAP2 SWAP1 PUSH2 0x17B5 JUMP JUMPDEST PUSH1 0x40 MLOAD DUP1 SWAP2 SUB SWAP1 LOG1 POP POP POP POP POP POP JUMP JUMPDEST POP JUMP JUMPDEST PUSH1 0x0 PUSH1 0x1 SWAP1 POP SWAP2 SWAP1 POP JUMP JUMPDEST PUSH1 0x0 SWAP2 SWAP1 POP JUMP JUMPDEST PUSH1 0x0 PUSH1 0x40 MLOAD SWAP1 POP SWAP1 JUMP JUMPDEST PUSH1 0x0 DUP1 REVERT JUMPDEST PUSH1 0x0 DUP1 REVERT JUMPDEST PUSH1 0x0 DUP2 SWAP1 POP SWAP2 SWAP1 POP JUMP JUMPDEST PUSH2 0xDA9 DUP2 PUSH2 0xD96 JUMP JUMPDEST DUP2 EQ PUSH2 0xDB4 JUMPI PUSH1 0x0 DUP1 REVERT JUMPDEST POP JUMP JUMPDEST PUSH1 0x0 DUP2 CALLDATALOAD SWAP1 POP PUSH2 0xDC6 DUP2 PUSH2 0xDA0 JUMP JUMPDEST SWAP3 SWAP2 POP POP JUMP JUMPDEST PUSH1 0x0 PUSH1 0x20 DUP3 DUP5 SUB SLT ISZERO PUSH2 0xDE2 JUMPI PUSH2 0xDE1 PUSH2 0xD8C JUMP JUMPDEST JUMPDEST PUSH1 0x0 PUSH2 0xDF0 DUP5 DUP3 DUP6 ADD PUSH2 0xDB7 JUMP JUMPDEST SWAP2 POP POP SWAP3 SWAP2 POP POP JUMP JUMPDEST PUSH2 0xE02 DUP2 PUSH2 0xD96 JUMP JUMPDEST DUP3 MSTORE POP POP JUMP JUMPDEST PUSH1 0x0 PUSH1 0x20 DUP3 ADD SWAP1 POP PUSH2 0xE1D PUSH1 0x0 DUP4 ADD DUP5 PUSH2 0xDF9 JUMP JUMPDEST SWAP3 SWAP2 POP POP JUMP JUMPDEST PUSH1 0x0 PUSH20 0xFFFFFFFFFFFFFFFFFFFFFFFFFFFFFFFFFFFFFFFF DUP3 AND SWAP1 POP SWAP2 SWAP1 POP JUMP JUMPDEST PUSH1 0x0 PUSH2 0xE4E DUP3 PUSH2 0xE23 JUMP JUMPDEST SWAP1 POP SWAP2 SWAP1 POP JUMP JUMPDEST PUSH2 0xE5E DUP2 PUSH2 0xE43 JUMP JUMPDEST DUP3 MSTORE POP POP JUMP JUMPDEST PUSH1 0x0 DUP2 MLOAD SWAP1 POP SWAP2 SWAP1 POP JUMP JUMPDEST PUSH1 0x0 DUP3 DUP3 MSTORE PUSH1 0x20 DUP3 ADD SWAP1 POP SWAP3 SWAP2 POP POP JUMP JUMPDEST PUSH1 0x0 JUMPDEST DUP4 DUP2 LT ISZERO PUSH2 0xE9E JUMPI DUP1 DUP3 ADD MLOAD DUP2 DUP5 ADD MSTORE PUSH1 0x20 DUP2 ADD SWAP1 POP PUSH2 0xE83 JUMP JUMPDEST PUSH1 0x0 DUP5 DUP5 ADD MSTORE POP POP POP POP JUMP JUMPDEST PUSH1 0x0 PUSH1 0x1F NOT PUSH1 0x1F DUP4 ADD AND SWAP1 POP SWAP2 SWAP1 POP JUMP JUMPDEST PUSH1 0x0 PUSH2 0xEC6 DUP3 PUSH2 0xE64 JUMP JUMPDEST PUSH2 0xED0 DUP2 DUP6 PUSH2 0xE6F JUMP JUMPDEST SWAP4 POP PUSH2 0xEE0 DUP2 DUP6 PUSH1 0x20 DUP7 ADD PUSH2 0xE80 JUMP JUMPDEST PUSH2 0xEE9 DUP2 PUSH2 0xEAA JUMP JUMPDEST DUP5 ADD SWAP2 POP POP SWAP3 SWAP2 POP POP JUMP JUMPDEST PUSH1 0x0 DUP2 ISZERO ISZERO SWAP1 POP SWAP2 SWAP1 POP JUMP JUMPDEST PUSH2 0xF09 DUP2 PUSH2 0xEF4 JUMP JUMPDEST DUP3 MSTORE POP POP JUMP JUMPDEST PUSH1 0x0 PUSH2 0x100 DUP3 ADD SWAP1 POP PUSH2 0xF25 PUSH1 0x0 DUP4 ADD DUP12 PUSH2 0xE55 JUMP JUMPDEST PUSH2 0xF32 PUSH1 0x20 DUP4 ADD DUP11 PUSH2 0xDF9 JUMP JUMPDEST PUSH2 0xF3F PUSH1 0x40 DUP4 ADD DUP10 PUSH2 0xDF9 JUMP JUMPDEST PUSH2 0xF4C PUSH1 0x60 DUP4 ADD DUP9 PUSH2 0xDF9 JUMP JUMPDEST PUSH2 0xF59 PUSH1 0x80 DUP4 ADD DUP8 PUSH2 0xDF9 JUMP JUMPDEST PUSH2 0xF66 PUSH1 0xA0 DUP4 ADD DUP7 PUSH2 0xDF9 JUMP JUMPDEST DUP2 DUP2 SUB PUSH1 0xC0 DUP4 ADD MSTORE PUSH2 0xF78 DUP2 DUP6 PUSH2 0xEBB JUMP JUMPDEST SWAP1 POP PUSH2 0xF87 PUSH1 0xE0 DUP4 ADD DUP5 PUSH2 0xF00 JUMP JUMPDEST SWAP10 SWAP9 POP POP POP POP POP POP POP POP POP JUMP JUMPDEST PUSH1 0x0 PUSH2 0xF9F DUP3 PUSH2 0xE23 JUMP JUMPDEST SWAP1 POP SWAP2 SWAP1 POP JUMP JUMPDEST PUSH2 0xFAF DUP2 PUSH2 0xF94 JUMP JUMPDEST DUP3 MSTORE POP POP JUMP JUMPDEST PUSH1 0x0 PUSH1 0x20 DUP3 ADD SWAP1 POP PUSH2 0xFCA PUSH1 0x0 DUP4 ADD DUP5 PUSH2 0xFA6 JUMP JUMPDEST SWAP3 SWAP2 POP POP JUMP JUMPDEST PUSH1 0x0 DUP1 REVERT JUMPDEST PUSH1 0x0 DUP1 REVERT JUMPDEST PUSH32 0x4E487B7100000000000000000000000000000000000000000000000000000000 PUSH1 0x0 MSTORE PUSH1 0x41 PUSH1 0x4 MSTORE PUSH1 0x24 PUSH1 0x0 REVERT JUMPDEST PUSH2 0x1012 DUP3 PUSH2 0xEAA JUMP JUMPDEST DUP2 ADD DUP2 DUP2 LT PUSH8 0xFFFFFFFFFFFFFFFF DUP3 GT OR ISZERO PUSH2 0x1031 JUMPI PUSH2 0x1030 PUSH2 0xFDA JUMP JUMPDEST JUMPDEST DUP1 PUSH1 0x40 MSTORE POP POP POP JUMP JUMPDEST PUSH1 0x0 PUSH2 0x1044 PUSH2 0xD82 JUMP JUMPDEST SWAP1 POP PUSH2 0x1050 DUP3 DUP3 PUSH2 0x1009 JUMP JUMPDEST SWAP2 SWAP1 POP JUMP JUMPDEST PUSH1 0x0 PUSH8 0xFFFFFFFFFFFFFFFF DUP3 GT ISZERO PUSH2 0x1070 JUMPI PUSH2 0x106F PUSH2 0xFDA JUMP JUMPDEST JUMPDEST PUSH2 0x1079 DUP3 PUSH2 0xEAA JUMP JUMPDEST SWAP1 POP PUSH1 0x20 DUP2 ADD SWAP1 POP SWAP2 SWAP1 POP JUMP JUMPDEST DUP3 DUP2 DUP4 CALLDATACOPY PUSH1 0x0 DUP4 DUP4 ADD MSTORE POP POP POP JUMP JUMPDEST PUSH1 0x0 PUSH2 0x10A8 PUSH2 0x10A3 DUP5 PUSH2 0x1055 JUMP JUMPDEST PUSH2 0x103A JUMP JUMPDEST SWAP1 POP DUP3 DUP2 MSTORE PUSH1 0x20 DUP2 ADD DUP5 DUP5 DUP5 ADD GT ISZERO PUSH2 0x10C4 JUMPI PUSH2 0x10C3 PUSH2 0xFD5 JUMP JUMPDEST JUMPDEST PUSH2 0x10CF DUP5 DUP3 DUP6 PUSH2 0x1086 JUMP JUMPDEST POP SWAP4 SWAP3 POP POP POP JUMP JUMPDEST PUSH1 0x0 DUP3 PUSH1 0x1F DUP4 ADD SLT PUSH2 0x10EC JUMPI PUSH2 0x10EB PUSH2 0xFD0 JUMP JUMPDEST JUMPDEST DUP2 CALLDATALOAD PUSH2 0x10FC DUP5 DUP3 PUSH1 0x20 DUP7 ADD PUSH2 0x1095 JUMP JUMPDEST SWAP2 POP POP SWAP3 SWAP2 POP POP JUMP JUMPDEST PUSH1 0x0 DUP1 PUSH1 0x0 DUP1 PUSH1 0x80 DUP6 DUP8 SUB SLT ISZERO PUSH2 0x111F JUMPI PUSH2 0x111E PUSH2 0xD8C JUMP JUMPDEST JUMPDEST PUSH1 0x0 PUSH2 0x112D DUP8 DUP3 DUP9 ADD PUSH2 0xDB7 JUMP JUMPDEST SWAP5 POP POP PUSH1 0x20 PUSH2 0x113E DUP8 DUP3 DUP9 ADD PUSH2 0xDB7 JUMP JUMPDEST SWAP4 POP POP PUSH1 0x40 DUP6 ADD CALLDATALOAD PUSH8 0xFFFFFFFFFFFFFFFF DUP2 GT ISZERO PUSH2 0x115F JUMPI PUSH2 0x115E PUSH2 0xD91 JUMP JUMPDEST JUMPDEST PUSH2 0x116B DUP8 DUP3 DUP9 ADD PUSH2 0x10D7 JUMP JUMPDEST SWAP3 POP POP PUSH1 0x60 PUSH2 0x117C DUP8 DUP3 DUP9 ADD PUSH2 0xDB7 JUMP JUMPDEST SWAP2 POP POP SWAP3 SWAP6 SWAP2 SWAP5 POP SWAP3 POP JUMP JUMPDEST PUSH32 0x4E487B7100000000000000000000000000000000000000000000000000000000 PUSH1 0x0 MSTORE PUSH1 0x32 PUSH1 0x4 MSTORE PUSH1 0x24 PUSH1 0x0 REVERT JUMPDEST PUSH32 0x4E487B7100000000000000000000000000000000000000000000000000000000 PUSH1 0x0 MSTORE PUSH1 0x22 PUSH1 0x4 MSTORE PUSH1 0x24 PUSH1 0x0 REVERT JUMPDEST PUSH1 0x0 PUSH1 0x2 DUP3 DIV SWAP1 POP PUSH1 0x1 DUP3 AND DUP1 PUSH2 0x11FE JUMPI PUSH1 0x7F DUP3 AND SWAP2 POP JUMPDEST PUSH1 0x20 DUP3 LT DUP2 SUB PUSH2 0x1211 JUMPI PUSH2 0x1210 PUSH2 0x11B7 JUMP JUMPDEST JUMPDEST POP SWAP2 SWAP1 POP JUMP JUMPDEST PUSH32 0x73746F7070656421000000000000000000000000000000000000000000000000 PUSH1 0x0 DUP3 ADD MSTORE POP JUMP JUMPDEST PUSH1 0x0 PUSH2 0x124D PUSH1 0x8 DUP4 PUSH2 0xE6F JUMP JUMPDEST SWAP2 POP PUSH2 0x1258 DUP3 PUSH2 0x1217 JUMP JUMPDEST PUSH1 0x20 DUP3 ADD SWAP1 POP SWAP2 SWAP1 POP JUMP JUMPDEST PUSH1 0x0 PUSH1 0x20 DUP3 ADD SWAP1 POP DUP2 DUP2 SUB PUSH1 0x0 DUP4 ADD MSTORE PUSH2 0x127C DUP2 PUSH2 0x1240 JUMP JUMPDEST SWAP1 POP SWAP2 SWAP1 POP JUMP JUMPDEST PUSH32 0x4E487B7100000000000000000000000000000000000000000000000000000000 PUSH1 0x0 MSTORE PUSH1 0x11 PUSH1 0x4 MSTORE PUSH1 0x24 PUSH1 0x0 REVERT JUMPDEST PUSH1 0x0 PUSH2 0x12BD DUP3 PUSH2 0xD96 JUMP JUMPDEST SWAP2 POP PUSH2 0x12C8 DUP4 PUSH2 0xD96 JUMP JUMPDEST SWAP3 POP DUP3 DUP3 SUB SWAP1 POP DUP2 DUP2 GT ISZERO PUSH2 0x12E0 JUMPI PUSH2 0x12DF PUSH2 0x1283 JUMP JUMPDEST JUMPDEST SWAP3 SWAP2 POP POP JUMP JUMPDEST PUSH1 0x0 PUSH2 0x12F1 DUP3 PUSH2 0xD96 JUMP JUMPDEST SWAP2 POP PUSH2 0x12FC DUP4 PUSH2 0xD96 JUMP JUMPDEST SWAP3 POP DUP3 DUP3 MUL PUSH2 0x130A DUP2 PUSH2 0xD96 JUMP JUMPDEST SWAP2 POP DUP3 DUP3 DIV DUP5 EQ DUP4 ISZERO OR PUSH2 0x1321 JUMPI PUSH2 0x1320 PUSH2 0x1283 JUMP JUMPDEST JUMPDEST POP SWAP3 SWAP2 POP POP JUMP JUMPDEST PUSH32 0x656E646564210000000000000000000000000000000000000000000000000000 PUSH1 0x0 DUP3 ADD MSTORE POP JUMP JUMPDEST PUSH1 0x0 PUSH2 0x135E PUSH1 0x6 DUP4 PUSH2 0xE6F JUMP JUMPDEST SWAP2 POP PUSH2 0x1369 DUP3 PUSH2 0x1328 JUMP JUMPDEST PUSH1 0x20 DUP3 ADD SWAP1 POP SWAP2 SWAP1 POP JUMP JUMPDEST PUSH1 0x0 PUSH1 0x20 DUP3 ADD SWAP1 POP DUP2 DUP2 SUB PUSH1 0x0 DUP4 ADD MSTORE PUSH2 0x138D DUP2 PUSH2 0x1351 JUMP JUMPDEST SWAP1 POP SWAP2 SWAP1 POP JUMP JUMPDEST PUSH32 0x6E6F7420656E6F7567682066756E647321000000000000000000000000000000 PUSH1 0x0 DUP3 ADD MSTORE POP JUMP JUMPDEST PUSH1 0x0 PUSH2 0x13CA PUSH1 0x11 DUP4 PUSH2 0xE6F JUMP JUMPDEST SWAP2 POP PUSH2 0x13D5 DUP3 PUSH2 0x1394 JUMP JUMPDEST PUSH1 0x20 DUP3 ADD SWAP1 POP SWAP2 SWAP1 POP JUMP JUMPDEST PUSH1 0x0 PUSH1 0x20 DUP3 ADD SWAP1 POP DUP2 DUP2 SUB PUSH1 0x0 DUP4 ADD MSTORE PUSH2 0x13F9 DUP2 PUSH2 0x13BD JUMP JUMPDEST SWAP1 POP SWAP2 SWAP1 POP JUMP JUMPDEST PUSH32 0x4E487B7100000000000000000000000000000000000000000000000000000000 PUSH1 0x0 MSTORE PUSH1 0x12 PUSH1 0x4 MSTORE PUSH1 0x24 PUSH1 0x0 REVERT JUMPDEST PUSH1 0x0 PUSH2 0x143A DUP3 PUSH2 0xD96 JUMP JUMPDEST SWAP2 POP PUSH2 0x1445 DUP4 PUSH2 0xD96 JUMP JUMPDEST SWAP3 POP DUP3 PUSH2 0x1455 JUMPI PUSH2 0x1454 PUSH2 0x1400 JUMP JUMPDEST JUMPDEST DUP3 DUP3 DIV SWAP1 POP SWAP3 SWAP2 POP POP JUMP JUMPDEST PUSH1 0x0 PUSH1 0x60 DUP3 ADD SWAP1 POP PUSH2 0x1475 PUSH1 0x0 DUP4 ADD DUP7 PUSH2 0xDF9 JUMP JUMPDEST PUSH2 0x1482 PUSH1 0x20 DUP4 ADD DUP6 PUSH2 0xDF9 JUMP JUMPDEST PUSH2 0x148F PUSH1 0x40 DUP4 ADD DUP5 PUSH2 0xFA6 JUMP JUMPDEST SWAP5 SWAP4 POP POP POP POP JUMP JUMPDEST PUSH32 0x496E636F72726563742073617472696E67202070726963650000000000000000 PUSH1 0x0 DUP3 ADD MSTORE POP JUMP JUMPDEST PUSH1 0x0 PUSH2 0x14CD PUSH1 0x18 DUP4 PUSH2 0xE6F JUMP JUMPDEST SWAP2 POP PUSH2 0x14D8 DUP3 PUSH2 0x1497 JUMP JUMPDEST PUSH1 0x20 DUP3 ADD SWAP1 POP SWAP2 SWAP1 POP JUMP JUMPDEST PUSH1 0x0 PUSH1 0x20 DUP3 ADD SWAP1 POP DUP2 DUP2 SUB PUSH1 0x0 DUP4 ADD MSTORE PUSH2 0x14FC DUP2 PUSH2 0x14C0 JUMP JUMPDEST SWAP1 POP SWAP2 SWAP1 POP JUMP JUMPDEST PUSH1 0x0 PUSH2 0x150E DUP3 PUSH2 0xD96 JUMP JUMPDEST SWAP2 POP PUSH2 0x1519 DUP4 PUSH2 0xD96 JUMP JUMPDEST SWAP3 POP DUP3 DUP3 ADD SWAP1 POP DUP1 DUP3 GT ISZERO PUSH2 0x1531 JUMPI PUSH2 0x1530 PUSH2 0x1283 JUMP JUMPDEST JUMPDEST SWAP3 SWAP2 POP POP JUMP JUMPDEST PUSH1 0x0 DUP2 SWAP1 POP DUP2 PUSH1 0x0 MSTORE PUSH1 0x20 PUSH1 0x0 KECCAK256 SWAP1 POP SWAP2 SWAP1 POP JUMP JUMPDEST PUSH1 0x0 PUSH1 0x20 PUSH1 0x1F DUP4 ADD DIV SWAP1 POP SWAP2 SWAP1 POP JUMP JUMPDEST PUSH1 0x0 DUP3 DUP3 SHL SWAP1 POP SWAP3 SWAP2 POP POP JUMP JUMPDEST PUSH1 0x0 PUSH1 0x8 DUP4 MUL PUSH2 0x1599 PUSH32 0xFFFFFFFFFFFFFFFFFFFFFFFFFFFFFFFFFFFFFFFFFFFFFFFFFFFFFFFFFFFFFFFF DUP3 PUSH2 0x155C JUMP JUMPDEST PUSH2 0x15A3 DUP7 DUP4 PUSH2 0x155C JUMP JUMPDEST SWAP6 POP DUP1 NOT DUP5 AND SWAP4 POP DUP1 DUP7 AND DUP5 OR SWAP3 POP POP POP SWAP4 SWAP3 POP POP POP JUMP JUMPDEST PUSH1 0x0 DUP2 SWAP1 POP SWAP2 SWAP1 POP JUMP JUMPDEST PUSH1 0x0 PUSH2 0x15E0 PUSH2 0x15DB PUSH2 0x15D6 DUP5 PUSH2 0xD96 JUMP JUMPDEST PUSH2 0x15BB JUMP JUMPDEST PUSH2 0xD96 JUMP JUMPDEST SWAP1 POP SWAP2 SWAP1 POP JUMP JUMPDEST PUSH1 0x0 DUP2 SWAP1 POP SWAP2 SWAP1 POP JUMP JUMPDEST PUSH2 0x15FA DUP4 PUSH2 0x15C5 JUMP JUMPDEST PUSH2 0x160E PUSH2 0x1606 DUP3 PUSH2 0x15E7 JUMP JUMPDEST DUP5 DUP5 SLOAD PUSH2 0x1569 JUMP JUMPDEST DUP3 SSTORE POP POP POP POP JUMP JUMPDEST PUSH1 0x0 SWAP1 JUMP JUMPDEST PUSH2 0x1623 PUSH2 0x1616 JUMP JUMPDEST PUSH2 0x162E DUP2 DUP5 DUP5 PUSH2 0x15F1 JUMP JUMPDEST POP POP POP JUMP JUMPDEST JUMPDEST DUP2 DUP2 LT ISZERO PUSH2 0x1652 JUMPI PUSH2 0x1647 PUSH1 0x0 DUP3 PUSH2 0x161B JUMP JUMPDEST PUSH1 0x1 DUP2 ADD SWAP1 POP PUSH2 0x1634 JUMP JUMPDEST POP POP JUMP JUMPDEST PUSH1 0x1F DUP3 GT ISZERO PUSH2 0x1697 JUMPI PUSH2 0x1668 DUP2 PUSH2 0x1537 JUMP JUMPDEST PUSH2 0x1671 DUP5 PUSH2 0x154C JUMP JUMPDEST DUP2 ADD PUSH1 0x20 DUP6 LT ISZERO PUSH2 0x1680 JUMPI DUP2 SWAP1 POP JUMPDEST PUSH2 0x1694 PUSH2 0x168C DUP6 PUSH2 0x154C JUMP JUMPDEST DUP4 ADD DUP3 PUSH2 0x1633 JUMP JUMPDEST POP POP JUMPDEST POP POP POP JUMP JUMPDEST PUSH1 0x0 DUP3 DUP3 SHR SWAP1 POP SWAP3 SWAP2 POP POP JUMP JUMPDEST PUSH1 0x0 PUSH2 0x16BA PUSH1 0x0 NOT DUP5 PUSH1 0x8 MUL PUSH2 0x169C JUMP JUMPDEST NOT DUP1 DUP4 AND SWAP2 POP POP SWAP3 SWAP2 POP POP JUMP JUMPDEST PUSH1 0x0 PUSH2 0x16D3 DUP4 DUP4 PUSH2 0x16A9 JUMP JUMPDEST SWAP2 POP DUP3 PUSH1 0x2 MUL DUP3 OR SWAP1 POP SWAP3 SWAP2 POP POP JUMP JUMPDEST PUSH2 0x16EC DUP3 PUSH2 0xE64 JUMP JUMPDEST PUSH8 0xFFFFFFFFFFFFFFFF DUP2 GT ISZERO PUSH2 0x1705 JUMPI PUSH2 0x1704 PUSH2 0xFDA JUMP JUMPDEST JUMPDEST PUSH2 0x170F DUP3 SLOAD PUSH2 0x11E6 JUMP JUMPDEST PUSH2 0x171A DUP3 DUP3 DUP6 PUSH2 0x1656 JUMP JUMPDEST PUSH1 0x0 PUSH1 0x20 SWAP1 POP PUSH1 0x1F DUP4 GT PUSH1 0x1 DUP2 EQ PUSH2 0x174D JUMPI PUSH1 0x0 DUP5 ISZERO PUSH2 0x173B JUMPI DUP3 DUP8 ADD MLOAD SWAP1 POP JUMPDEST PUSH2 0x1745 DUP6 DUP3 PUSH2 0x16C7 JUMP JUMPDEST DUP7 SSTORE POP PUSH2 0x17AD JUMP JUMPDEST PUSH1 0x1F NOT DUP5 AND PUSH2 0x175B DUP7 PUSH2 0x1537 JUMP JUMPDEST PUSH1 0x0 JUMPDEST DUP3 DUP2 LT ISZERO PUSH2 0x1783 JUMPI DUP5 DUP10 ADD MLOAD DUP3 SSTORE PUSH1 0x1 DUP3 ADD SWAP2 POP PUSH1 0x20 DUP6 ADD SWAP5 POP PUSH1 0x20 DUP2 ADD SWAP1 POP PUSH2 0x175E JUMP JUMPDEST DUP7 DUP4 LT ISZERO PUSH2 0x17A0 JUMPI DUP5 DUP10 ADD MLOAD PUSH2 0x179C PUSH1 0x1F DUP10 AND DUP3 PUSH2 0x16A9 JUMP JUMPDEST DUP4 SSTORE POP JUMPDEST PUSH1 0x1 PUSH1 0x2 DUP9 MUL ADD DUP9 SSTORE POP POP POP JUMPDEST POP POP POP POP POP POP JUMP JUMPDEST PUSH1 0x0 PUSH1 0x80 DUP3 ADD SWAP1 POP PUSH2 0x17CA PUSH1 0x0 DUP4 ADD DUP8 PUSH2 0xDF9 JUMP JUMPDEST DUP2 DUP2 SUB PUSH1 0x20 DUP4 ADD MSTORE PUSH2 0x17DC DUP2 DUP7 PUSH2 0xEBB JUMP JUMPDEST SWAP1 POP PUSH2 0x17EB PUSH1 0x40 DUP4 ADD DUP6 PUSH2 0xDF9 JUMP JUMPDEST PUSH2 0x17F8 PUSH1 0x60 DUP4 ADD DUP5 PUSH2 0xDF9 JUMP JUMPDEST SWAP6 SWAP5 POP POP POP POP POP JUMP INVALID LOG2 PUSH5 0x6970667358 0x22 SLT KECCAK256 0xC8 0x26 0x27 0x4E LOG3 EXTCODECOPY PUSH20 0x7EC39382363831815B4E2CC1325291FA510209B3 0xD9 0xBC PUSH12 0x85E964736F6C634300081300 CALLER "},"methodIdentifiers":{"auctions(uint256)":"571a26a0","buy(uint256)":"d96a094a","createAuction(uint256,uint256,string,uint256)":"e9835d15","getPriceFor(uint256)":"4534cd9c","owner()":"8da5cb5b"}}}}}