{"contracts/lesson7.sol":{"Demo":{"abi":[{"inputs":[],"stateMutability":"nonpayable","type":"constructor"},{"anonymous":false,"inputs":[{"indexed":true,"internalType":"address","name":"_from","type":"address"},{"indexed":false,"internalType":"uint256","name":"_amount","type":"uint256"},{"indexed":false,"internalType":"uint256","name":"_timestamp","type":"uint256"}],"name":"Paid","type":"event"},{"inputs":[],"name":"pay","outputs":[],"stateMutability":"payable","type":"function"},{"inputs":[{"internalType":"address payable","name":"_to","type":"address"}],"name":"withdraw","outputs":[],"stateMutability":"nonpayable","type":"function"},{"stateMutability":"payable","type":"receive"}],"evm":{"bytecode":{"linkReferences":{},"object":"608060405234801561001057600080fd5b5061002b675899872008559ca860c01b61008a60201b60201c565b61004567c1a9e7c4bea8ca3b60c01b61008a60201b60201c565b336000806101000a81548173ffffffffffffffffffffffffffffffffffffffff021916908373ffffffffffffffffffffffffffffffffffffffff16021790555061008d565b50565b61057f8061009c6000396000f3fe60806040526004361061002d5760003560e01c80631b9265b81461005557806351cff8d91461005f57610050565b3661005057610046679f06bae83d45f0cf60c01b610088565b61004e61008b565b005b600080fd5b61005d61008b565b005b34801561006b57600080fd5b50610086600480360381019061008191906103f1565b610119565b005b50565b61009f67e67e5c444c96e4de60c01b610088565b6100b367ee8664501f11eac260c01b610088565b6100c767bb422409e1eb5a9b60c01b610088565b3373ffffffffffffffffffffffffffffffffffffffff167fdf9a51129930649214df58f542322c245372c6f2fa6fc3c9b40d927c597cd230344260405161010f929190610437565b60405180910390a2565b61012d6735909806cb07d6b460c01b610088565b806101426723eb0cb9a10ab4ae60c01b610088565b610156675a35467e3785fc9760c01b610088565b61016a671a8f487de618a02660c01b610088565b61017e67dcf3fbfc34cf58e460c01b610088565b60008054906101000a900473ffffffffffffffffffffffffffffffffffffffff1673ffffffffffffffffffffffffffffffffffffffff163373ffffffffffffffffffffffffffffffffffffffff161461020c576040517f08c379a0000000000000000000000000000000000000000000000000000000008152600401610203906104bd565b60405180910390fd5b61022067bdab40f97e9c4bd860c01b610088565b61023467e3885ed27902769160c01b610088565b61024867d5ebcb7c32ed551360c01b610088565b61025c6727e5d5c17389f1eb60c01b610088565b600073ffffffffffffffffffffffffffffffffffffffff168173ffffffffffffffffffffffffffffffffffffffff16036102cb576040517f08c379a00000000000000000000000000000000000000000000000000000000081526004016102c290610529565b60405180910390fd5b6102df67a9b47e37d52299f560c01b610088565b6102f3678a608752f799c77060c01b610088565b6103076769f6125125423be160c01b610088565b61031b67ec3c45e0aed8c16b60c01b610088565b61032f67ae6d7af804d56ced60c01b610088565b61034367d63e306bdcdf9c2160c01b610088565b8173ffffffffffffffffffffffffffffffffffffffff166108fc479081150290604051600060405180830381858888f19350505050158015610389573d6000803e3d6000fd5b505050565b600080fd5b600073ffffffffffffffffffffffffffffffffffffffff82169050919050565b60006103be82610393565b9050919050565b6103ce816103b3565b81146103d957600080fd5b50565b6000813590506103eb816103c5565b92915050565b6000602082840312156104075761040661038e565b5b6000610415848285016103dc565b91505092915050565b6000819050919050565b6104318161041e565b82525050565b600060408201905061044c6000830185610428565b6104596020830184610428565b9392505050565b600082825260208201905092915050565b7f796f7520617265206e6f7420616e206f776e6572210000000000000000000000600082015250565b60006104a7601583610460565b91506104b282610471565b602082019050919050565b600060208201905081810360008301526104d68161049a565b9050919050565b7f696e636f72726563742061646472657373210000000000000000000000000000600082015250565b6000610513601283610460565b915061051e826104dd565b602082019050919050565b6000602082019050818103600083015261054281610506565b905091905056fea2646970667358221220050bffa25064dde3e7905f570216bf7afe60fe10b572652d54fce26881051e7a64736f6c63430008130033","opcodes":"PUSH1 0x80 PUSH1 0x40 MSTORE CALLVALUE DUP1 ISZERO PUSH2 0x10 JUMPI PUSH1 0x0 DUP1 REVERT JUMPDEST POP PUSH2 0x2B PUSH8 0x5899872008559CA8 PUSH1 0xC0 SHL PUSH2 0x8A PUSH1 0x20 SHL PUSH1 0x20 SHR JUMP JUMPDEST PUSH2 0x45 PUSH8 0xC1A9E7C4BEA8CA3B PUSH1 0xC0 SHL PUSH2 0x8A PUSH1 0x20 SHL PUSH1 0x20 SHR JUMP JUMPDEST CALLER PUSH1 0x0 DUP1 PUSH2 0x100 EXP DUP2 SLOAD DUP2 PUSH20 0xFFFFFFFFFFFFFFFFFFFFFFFFFFFFFFFFFFFFFFFF MUL NOT AND SWAP1 DUP4 PUSH20 0xFFFFFFFFFFFFFFFFFFFFFFFFFFFFFFFFFFFFFFFF AND MUL OR SWAP1 SSTORE POP PUSH2 0x8D JUMP JUMPDEST POP JUMP JUMPDEST PUSH2 0x57F DUP1 PUSH2 0x9C PUSH1 0x0 CODECOPY PUSH1 0x0 RETURN INVALID PUSH1 0x80 PUSH1 0x40 MSTORE PUSH1 0x4 CALLDATASIZE LT PUSH2 0x2D JUMPI PUSH1 0x0 CALLDATALOAD PUSH1 0xE0 SHR DUP1 PUSH4 0x1B9265B8 EQ PUSH2 0x55 JUMPI DUP1 PUSH4 0x51CFF8D9 EQ PUSH2 0x5F JUMPI PUSH2 0x50 JUMP JUMPDEST CALLDATASIZE PUSH2 0x50 JUMPI PUSH2 0x46 PUSH8 0x9F06BAE83D45F0CF PUSH1 0xC0 SHL PUSH2 0x88 JUMP JUMPDEST PUSH2 0x4E PUSH2 0x8B JUMP JUMPDEST STOP JUMPDEST PUSH1 0x0 DUP1 REVERT JUMPDEST PUSH2 0x5D PUSH2 0x8B JUMP JUMPDEST STOP JUMPDEST CALLVALUE DUP1 ISZERO PUSH2 0x6B JUMPI PUSH1 0x0 DUP1 REVERT JUMPDEST POP PUSH2 0x86 PUSH1 0x4 DUP1 CALLDATASIZE SUB DUP2 ADD SWAP1 PUSH2 0x81 SWAP2 SWAP1 PUSH2 0x3F1 JUMP JUMPDEST PUSH2 0x119 JUMP JUMPDEST STOP JUMPDEST POP JUMP JUMPDEST PUSH2 0x9F PUSH8 0xE67E5C444C96E4DE PUSH1 0xC0 SHL PUSH2 0x88 JUMP JUMPDEST PUSH2 0xB3 PUSH8 0xEE8664501F11EAC2 PUSH1 0xC0 SHL PUSH2 0x88 JUMP JUMPDEST PUSH2 0xC7 PUSH8 0xBB422409E1EB5A9B PUSH1 0xC0 SHL PUSH2 0x88 JUMP JUMPDEST CALLER PUSH20 0xFFFFFFFFFFFFFFFFFFFFFFFFFFFFFFFFFFFFFFFF AND PUSH32 0xDF9A51129930649214DF58F542322C245372C6F2FA6FC3C9B40D927C597CD230 CALLVALUE TIMESTAMP PUSH1 0x40 MLOAD PUSH2 0x10F SWAP3 SWAP2 SWAP1 PUSH2 0x437 JUMP JUMPDEST PUSH1 0x40 MLOAD DUP1 SWAP2 SUB SWAP1 LOG2 JUMP JUMPDEST PUSH2 0x12D PUSH8 0x35909806CB07D6B4 PUSH1 0xC0 SHL PUSH2 0x88 JUMP JUMPDEST DUP1 PUSH2 0x142 PUSH8 0x23EB0CB9A10AB4AE PUSH1 0xC0 SHL PUSH2 0x88 JUMP JUMPDEST PUSH2 0x156 PUSH8 0x5A35467E3785FC97 PUSH1 0xC0 SHL PUSH2 0x88 JUMP JUMPDEST PUSH2 0x16A PUSH8 0x1A8F487DE618A026 PUSH1 0xC0 SHL PUSH2 0x88 JUMP JUMPDEST PUSH2 0x17E PUSH8 0xDCF3FBFC34CF58E4 PUSH1 0xC0 SHL PUSH2 0x88 JUMP JUMPDEST PUSH1 0x0 DUP1 SLOAD SWAP1 PUSH2 0x100 EXP SWAP1 DIV PUSH20 0xFFFFFFFFFFFFFFFFFFFFFFFFFFFFFFFFFFFFFFFF AND PUSH20 0xFFFFFFFFFFFFFFFFFFFFFFFFFFFFFFFFFFFFFFFF AND CALLER PUSH20 0xFFFFFFFFFFFFFFFFFFFFFFFFFFFFFFFFFFFFFFFF AND EQ PUSH2 0x20C JUMPI PUSH1 0x40 MLOAD PUSH32 0x8C379A000000000000000000000000000000000000000000000000000000000 DUP2 MSTORE PUSH1 0x4 ADD PUSH2 0x203 SWAP1 PUSH2 0x4BD JUMP JUMPDEST PUSH1 0x40 MLOAD DUP1 SWAP2 SUB SWAP1 REVERT JUMPDEST PUSH2 0x220 PUSH8 0xBDAB40F97E9C4BD8 PUSH1 0xC0 SHL PUSH2 0x88 JUMP JUMPDEST PUSH2 0x234 PUSH8 0xE3885ED279027691 PUSH1 0xC0 SHL PUSH2 0x88 JUMP JUMPDEST PUSH2 0x248 PUSH8 0xD5EBCB7C32ED5513 PUSH1 0xC0 SHL PUSH2 0x88 JUMP JUMPDEST PUSH2 0x25C PUSH8 0x27E5D5C17389F1EB PUSH1 0xC0 SHL PUSH2 0x88 JUMP JUMPDEST PUSH1 0x0 PUSH20 0xFFFFFFFFFFFFFFFFFFFFFFFFFFFFFFFFFFFFFFFF AND DUP2 PUSH20 0xFFFFFFFFFFFFFFFFFFFFFFFFFFFFFFFFFFFFFFFF AND SUB PUSH2 0x2CB JUMPI PUSH1 0x40 MLOAD PUSH32 0x8C379A000000000000000000000000000000000000000000000000000000000 DUP2 MSTORE PUSH1 0x4 ADD PUSH2 0x2C2 SWAP1 PUSH2 0x529 JUMP JUMPDEST PUSH1 0x40 MLOAD DUP1 SWAP2 SUB SWAP1 REVERT JUMPDEST PUSH2 0x2DF PUSH8 0xA9B47E37D52299F5 PUSH1 0xC0 SHL PUSH2 0x88 JUMP JUMPDEST PUSH2 0x2F3 PUSH8 0x8A608752F799C770 PUSH1 0xC0 SHL PUSH2 0x88 JUMP JUMPDEST PUSH2 0x307 PUSH8 0x69F6125125423BE1 PUSH1 0xC0 SHL PUSH2 0x88 JUMP JUMPDEST PUSH2 0x31B PUSH8 0xEC3C45E0AED8C16B PUSH1 0xC0 SHL PUSH2 0x88 JUMP JUMPDEST PUSH2 0x32F PUSH8 0xAE6D7AF804D56CED PUSH1 0xC0 SHL PUSH2 0x88 JUMP JUMPDEST PUSH2 0x343 PUSH8 0xD63E306BDCDF9C21 PUSH1 0xC0 SHL PUSH2 0x88 JUMP JUMPDEST DUP2 PUSH20 0xFFFFFFFFFFFFFFFFFFFFFFFFFFFFFFFFFFFFFFFF AND PUSH2 0x8FC SELFBALANCE SWAP1 DUP2 ISZERO MUL SWAP1 PUSH1 0x40 MLOAD PUSH1 0x0 PUSH1 0x40 MLOAD DUP1 DUP4 SUB DUP2 DUP6 DUP9 DUP9 CALL SWAP4 POP POP POP POP ISZERO DUP1 ISZERO PUSH2 0x389 JUMPI RETURNDATASIZE PUSH1 0x0 DUP1 RETURNDATACOPY RETURNDATASIZE PUSH1 0x0 REVERT JUMPDEST POP POP POP JUMP JUMPDEST PUSH1 0x0 DUP1 REVERT JUMPDEST PUSH1 0x0 PUSH20 0xFFFFFFFFFFFFFFFFFFFFFFFFFFFFFFFFFFFFFFFF DUP3 AND SWAP1 POP SWAP2 SWAP1 POP JUMP JUMPDEST PUSH1 0x0 PUSH2 0x3BE DUP3 PUSH2 0x393 JUMP JUMPDEST SWAP1 POP SWAP2 SWAP1 POP JUMP JUMPDEST PUSH2 0x3CE DUP2 PUSH2 0x3B3 JUMP JUMPDEST DUP2 EQ PUSH2 0x3D9 JUMPI PUSH1 0x0 DUP1 REVERT JUMPDEST POP JUMP JUMPDEST PUSH1 0x0 DUP2 CALLDATALOAD SWAP1 POP PUSH2 0x3EB DUP2 PUSH2 0x3C5 JUMP JUMPDEST SWAP3 SWAP2 POP POP JUMP JUMPDEST PUSH1 0x0 PUSH1 0x20 DUP3 DUP5 SUB SLT ISZERO PUSH2 0x407 JUMPI PUSH2 0x406 PUSH2 0x38E JUMP JUMPDEST JUMPDEST PUSH1 0x0 PUSH2 0x415 DUP5 DUP3 DUP6 ADD PUSH2 0x3DC JUMP JUMPDEST SWAP2 POP POP SWAP3 SWAP2 POP POP JUMP JUMPDEST PUSH1 0x0 DUP2 SWAP1 POP SWAP2 SWAP1 POP JUMP JUMPDEST PUSH2 0x431 DUP2 PUSH2 0x41E JUMP JUMPDEST DUP3 MSTORE POP POP JUMP JUMPDEST PUSH1 0x0 PUSH1 0x40 DUP3 ADD SWAP1 POP PUSH2 0x44C PUSH1 0x0 DUP4 ADD DUP6 PUSH2 0x428 JUMP JUMPDEST PUSH2 0x459 PUSH1 0x20 DUP4 ADD DUP5 PUSH2 0x428 JUMP JUMPDEST SWAP4 SWAP3 POP POP POP JUMP JUMPDEST PUSH1 0x0 DUP3 DUP3 MSTORE PUSH1 0x20 DUP3 ADD SWAP1 POP SWAP3 SWAP2 POP POP JUMP JUMPDEST PUSH32 0x796F7520617265206E6F7420616E206F776E6572210000000000000000000000 PUSH1 0x0 DUP3 ADD MSTORE POP JUMP JUMPDEST PUSH1 0x0 PUSH2 0x4A7 PUSH1 0x15 DUP4 PUSH2 0x460 JUMP JUMPDEST SWAP2 POP PUSH2 0x4B2 DUP3 PUSH2 0x471 JUMP JUMPDEST PUSH1 0x20 DUP3 ADD SWAP1 POP SWAP2 SWAP1 POP JUMP JUMPDEST PUSH1 0x0 PUSH1 0x20 DUP3 ADD SWAP1 POP DUP2 DUP2 SUB PUSH1 0x0 DUP4 ADD MSTORE PUSH2 0x4D6 DUP2 PUSH2 0x49A JUMP JUMPDEST SWAP1 POP SWAP2 SWAP1 POP JUMP JUMPDEST PUSH32 0x696E636F72726563742061646472657373210000000000000000000000000000 PUSH1 0x0 DUP3 ADD MSTORE POP JUMP JUMPDEST PUSH1 0x0 PUSH2 0x513 PUSH1 0x12 DUP4 PUSH2 0x460 JUMP JUMPDEST SWAP2 POP PUSH2 0x51E DUP3 PUSH2 0x4DD JUMP JUMPDEST PUSH1 0x20 DUP3 ADD SWAP1 POP SWAP2 SWAP1 POP JUMP JUMPDEST PUSH1 0x0 PUSH1 0x20 DUP3 ADD SWAP1 POP DUP2 DUP2 SUB PUSH1 0x0 DUP4 ADD MSTORE PUSH2 0x542 DUP2 PUSH2 0x506 JUMP JUMPDEST SWAP1 POP SWAP2 SWAP1 POP JUMP INVALID LOG2 PUSH5 0x6970667358 0x22 SLT KECCAK256 SDIV SIGNEXTEND SELFDESTRUCT LOG2 POP PUSH5 0xDDE3E7905F JUMPI MUL AND 0xBF PUSH27 0xFE60FE10B572652D54FCE26881051E7A64736F6C63430008130033 "},"methodIdentifiers":{"pay()":"1b9265b8","withdraw(address)":"51cff8d9"}}}}}