{
  "_format": "hh-sol-artifact-1",
  "contractName": "AucEngine",
  "sourceName": "contracts/AucEngine.sol",
  "abi": [
    {
      "inputs": [],
      "stateMutability": "nonpayable",
      "type": "constructor"
    },
    {
      "anonymous": false,
      "inputs": [
        {
          "indexed": false,
          "internalType": "uint256",
          "name": "index",
          "type": "uint256"
        },
        {
          "indexed": false,
          "internalType": "string",
          "name": "itemName",
          "type": "string"
        },
        {
          "indexed": false,
          "internalType": "uint256",
          "name": "startingPrice",
          "type": "uint256"
        },
        {
          "indexed": false,
          "internalType": "uint256",
          "name": "duration",
          "type": "uint256"
        }
      ],
      "name": "AuctionCreated",
      "type": "event"
    },
    {
      "anonymous": false,
      "inputs": [
        {
          "indexed": false,
          "internalType": "uint256",
          "name": "index",
          "type": "uint256"
        },
        {
          "indexed": false,
          "internalType": "uint256",
          "name": "finalPrice",
          "type": "uint256"
        },
        {
          "indexed": false,
          "internalType": "address",
          "name": "winner",
          "type": "address"
        }
      ],
      "name": "AuctionEnded",
      "type": "event"
    },
    {
      "inputs": [
        {
          "internalType": "uint256",
          "name": "",
          "type": "uint256"
        }
      ],
      "name": "auctions",
      "outputs": [
        {
          "internalType": "address payable",
          "name": "seller",
          "type": "address"
        },
        {
          "internalType": "uint256",
          "name": "startingPrice",
          "type": "uint256"
        },
        {
          "internalType": "uint256",
          "name": "finalPrice",
          "type": "uint256"
        },
        {
          "internalType": "uint256",
          "name": "startAt",
          "type": "uint256"
        },
        {
          "internalType": "uint256",
          "name": "endsAt",
          "type": "uint256"
        },
        {
          "internalType": "uint256",
          "name": "discountRate",
          "type": "uint256"
        },
        {
          "internalType": "string",
          "name": "item",
          "type": "string"
        },
        {
          "internalType": "bool",
          "name": "stopped",
          "type": "bool"
        }
      ],
      "stateMutability": "view",
      "type": "function"
    },
    {
      "inputs": [
        {
          "internalType": "uint256",
          "name": "index",
          "type": "uint256"
        }
      ],
      "name": "buy",
      "outputs": [],
      "stateMutability": "payable",
      "type": "function"
    },
    {
      "inputs": [
        {
          "internalType": "uint256",
          "name": "_startingPrice",
          "type": "uint256"
        },
        {
          "internalType": "uint256",
          "name": "_discountRate",
          "type": "uint256"
        },
        {
          "internalType": "string",
          "name": "_item",
          "type": "string"
        },
        {
          "internalType": "uint256",
          "name": "_duration",
          "type": "uint256"
        }
      ],
      "name": "createAuction",
      "outputs": [],
      "stateMutability": "nonpayable",
      "type": "function"
    },
    {
      "inputs": [
        {
          "internalType": "uint256",
          "name": "index",
          "type": "uint256"
        }
      ],
      "name": "getPriceFor",
      "outputs": [
        {
          "internalType": "uint256",
          "name": "",
          "type": "uint256"
        }
      ],
      "stateMutability": "view",
      "type": "function"
    },
    {
      "inputs": [],
      "name": "owner",
      "outputs": [
        {
          "internalType": "address",
          "name": "",
          "type": "address"
        }
      ],
      "stateMutability": "view",
      "type": "function"
    }
  ],
  "bytecode": "0x608060405234801561001057600080fd5b5061002b677c1e64ecb33764bd60c01b61008a60201b60201c565b61004567f69e2e9d89c9547b60c01b61008a60201b60201c565b336000806101000a81548173ffffffffffffffffffffffffffffffffffffffff021916908373ffffffffffffffffffffffffffffffffffffffff16021790555061008d565b50565b6118378061009c6000396000f3fe60806040526004361061004a5760003560e01c80634534cd9c1461004f578063571a26a01461008c5780638da5cb5b146100d0578063d96a094a146100fb578063e9835d1514610117575b600080fd5b34801561005b57600080fd5b5061007660048036038101906100719190610dcc565b610140565b6040516100839190610e08565b60405180910390f35b34801561009857600080fd5b506100b360048036038101906100ae9190610dcc565b610434565b6040516100c7989796959493929190610f0f565b60405180910390f35b3480156100dc57600080fd5b506100e5610541565b6040516100f29190610fb5565b60405180910390f35b61011560048036038101906101109190610dcc565b610565565b005b34801561012357600080fd5b5061013e60048036038101906101399190611105565b610a3a565b005b6000610156673c415e0c3755b3fe60c01b610d6d565b61016a67bf479f3d1cad6f9460c01b610d6d565b61017e673291337f8c82e75560c01b610d6d565b60006001838154811061019457610193611188565b5b9060005260206000209060080201604051806101000160405290816000820160009054906101000a900473ffffffffffffffffffffffffffffffffffffffff1673ffffffffffffffffffffffffffffffffffffffff1673ffffffffffffffffffffffffffffffffffffffff1681526020016001820154815260200160028201548152602001600382015481526020016004820154815260200160058201548152602001600682018054610246906111e6565b80601f0160208091040260200160405190810160405280929190818152602001828054610272906111e6565b80156102bf5780601f10610294576101008083540402835291602001916102bf565b820191906000526020600020905b8154815290600101906020018083116102a257829003601f168201915b505050505081526020016007820160009054906101000a900460ff16151515158152505090506102f967978a351c6999694f60c01b610d6d565b61030d677d05f211cd35090f60c01b610d6d565b610321679280ca18c82fbed060c01b610d6d565b8060e0015115610366576040517f08c379a000000000000000000000000000000000000000000000000000000000815260040161035d90611263565b60405180910390fd5b61037a678fd01f31a1061c3260c01b610d6d565b61038e67d76941c6e2c71ca860c01b610d6d565b6103a267e1e980a8e919a9cf60c01b610d6d565b60008160600151426103b491906112b2565b90506103ca67fbcfae6b4af40a1160c01b610d6d565b6103de6715ea51e7a76e4f6e60c01b610d6d565b6000818360a001516103f091906112e6565b905061040667d7c24c18b261a73b60c01b610d6d565b61041a675ac59d57bf2287fb60c01b610d6d565b80836020015161042a91906112b2565b9350505050919050565b6001818154811061044457600080fd5b90600052602060002090600802016000915090508060000160009054906101000a900473ffffffffffffffffffffffffffffffffffffffff16908060010154908060020154908060030154908060040154908060050154908060060180546104ab906111e6565b80601f01602080910402602001604051908101604052809291908181526020018280546104d7906111e6565b80156105245780601f106104f957610100808354040283529160200191610524565b820191906000526020600020905b81548152906001019060200180831161050757829003601f168201915b5050505050908060070160009054906101000a900460ff16905088565b60008054906101000a900473ffffffffffffffffffffffffffffffffffffffff1681565b610579670561238897d60f9560c01b610d6d565b61058d670a9f12841831ae3b60c01b610d6d565b6105a167d6cc090acc8cb95d60c01b610d6d565b6000600182815481106105b7576105b6611188565b5b906000526020600020906008020190506105db6759782210b419a3d860c01b610d6d565b6105ef67d597dc21e830ba3b60c01b610d6d565b61060367734aa11d7fa688fb60c01b610d6d565b8060070160009054906101000a900460ff1615610655576040517f08c379a000000000000000000000000000000000000000000000000000000000815260040161064c90611263565b60405180910390fd5b6106696744c42ed1782bbc5b60c01b610d6d565b61067d671db9f766363b979d60c01b610d6d565b610691676caf2d1de02e427d60c01b610d6d565b6106a5676b0dd10e684fc44860c01b610d6d565b806004015442106106eb576040517f08c379a00000000000000000000000000000000000000000000000000000000081526004016106e290611374565b60405180910390fd5b6106ff67865ced64c880b46160c01b610d6d565b610713674e09b14134bc73d460c01b610d6d565b61072767cd2419236da0ae5160c01b610d6d565b600061073283610140565b905061074867b2d6f289f4e1d1c560c01b610d6d565b61075c677f0dfc2d8e6d3df160c01b610d6d565b61077067bccf8ef7699545e160c01b610d6d565b803410156107b3576040517f08c379a00000000000000000000000000000000000000000000000000000000081526004016107aa906113e0565b60405180910390fd5b6107c767cab996597157f9f760c01b610d6d565b6107db67a72b02c3176a5c9a60c01b610d6d565b60018260070160006101000a81548160ff02191690831515021790555061080c678623de584adb8a8a60c01b610d6d565b80826002018190555061082967087b15c866fcd62960c01b610d6d565b61083d6768a05e7e1511990460c01b610d6d565b6000813461084b91906112b2565b90506108616752784fcf509613c860c01b610d6d565b610875670ab1ec0a395f92cb60c01b610d6d565b60008111156109065761089267053664789810bf8260c01b610d6d565b6108a66787c81f5aac1d628260c01b610d6d565b6108ba67d241e5054eee4b4360c01b610d6d565b3373ffffffffffffffffffffffffffffffffffffffff166108fc829081150290604051600060405180830381858888f19350505050158015610900573d6000803e3d6000fd5b5061091b565b61091a67250c9b06a6818cbd60c01b610d6d565b5b61092f6764ae5aa6c0c639e460c01b610d6d565b6109436721c29b195454ce6860c01b610d6d565b8260000160009054906101000a900473ffffffffffffffffffffffffffffffffffffffff1673ffffffffffffffffffffffffffffffffffffffff166108fc6064600a8561099091906112e6565b61099a919061142f565b846109a591906112b2565b9081150290604051600060405180830381858888f193505050501580156109d0573d6000803e3d6000fd5b506109e567b594cf8245f95bfe60c01b610d6d565b6109f967ba8f591fa31f6e4d60c01b610d6d565b7fbafc4bda865d4d1f8d5b16f883e996fde0fe71112fac81503876d35375694400848333604051610a2c93929190611460565b60405180910390a150505050565b610a4e675d4ee16ba71d243560c01b610d6d565b610a6267b6418a5023e96b5460c01b610d6d565b610a7667ecdecad620aa833560c01b610d6d565b60008082148015610a975750610a966710c1f49268fa442560c01b610d70565b5b80610ab25750610ab1676ed02d28eddd629d60c01b610d7b565b5b610abc5781610ac1565b6202a3005b9050610ad7674cf775bf7c1e9bb060c01b610d6d565b610aeb67cee896e07aa70ad160c01b610d6d565b610aff67cf5532182ee1f47c60c01b610d6d565b8084610b0b91906112e6565b851015610b4d576040517f08c379a0000000000000000000000000000000000000000000000000000000008152600401610b44906114e3565b60405180910390fd5b610b6167a60f5e2a59db020660c01b610d6d565b610b75672ca309b7c4e92fb860c01b610d6d565b610b896758a42fd86365ebdc60c01b610d6d565b60006040518061010001604052803373ffffffffffffffffffffffffffffffffffffffff1681526020018781526020018781526020014281526020018342610bd19190611503565b8152602001868152602001858152602001600015158152509050610bff674bb5af7143dc8a3360c01b610d6d565b610c1367e93e5abe66c7879c60c01b610d6d565b600181908060018154018082558091505060019003906000526020600020906008020160009091909190915060008201518160000160006101000a81548173ffffffffffffffffffffffffffffffffffffffff021916908373ffffffffffffffffffffffffffffffffffffffff1602179055506020820151816001015560408201518160020155606082015181600301556080820151816004015560a0820151816005015560c0820151816006019081610ccd91906116e3565b5060e08201518160070160006101000a81548160ff0219169083151502179055505050610d04670b70e071aceb005c60c01b610d6d565b610d18672928b17ed7da883c60c01b610d6d565b7f5bf34ed94988e5dcdc7d1faaa54eb1d3b55f45d5f11457e235afb21a8ebbe73c60018080549050610d4a91906112b2565b858885604051610d5d94939291906117b5565b60405180910390a1505050505050565b50565b600060019050919050565b6000919050565b6000604051905090565b600080fd5b600080fd5b6000819050919050565b610da981610d96565b8114610db457600080fd5b50565b600081359050610dc681610da0565b92915050565b600060208284031215610de257610de1610d8c565b5b6000610df084828501610db7565b91505092915050565b610e0281610d96565b82525050565b6000602082019050610e1d6000830184610df9565b92915050565b600073ffffffffffffffffffffffffffffffffffffffff82169050919050565b6000610e4e82610e23565b9050919050565b610e5e81610e43565b82525050565b600081519050919050565b600082825260208201905092915050565b60005b83811015610e9e578082015181840152602081019050610e83565b60008484015250505050565b6000601f19601f8301169050919050565b6000610ec682610e64565b610ed08185610e6f565b9350610ee0818560208601610e80565b610ee981610eaa565b840191505092915050565b60008115159050919050565b610f0981610ef4565b82525050565b600061010082019050610f25600083018b610e55565b610f32602083018a610df9565b610f3f6040830189610df9565b610f4c6060830188610df9565b610f596080830187610df9565b610f6660a0830186610df9565b81810360c0830152610f788185610ebb565b9050610f8760e0830184610f00565b9998505050505050505050565b6000610f9f82610e23565b9050919050565b610faf81610f94565b82525050565b6000602082019050610fca6000830184610fa6565b92915050565b600080fd5b600080fd5b7f4e487b7100000000000000000000000000000000000000000000000000000000600052604160045260246000fd5b61101282610eaa565b810181811067ffffffffffffffff8211171561103157611030610fda565b5b80604052505050565b6000611044610d82565b90506110508282611009565b919050565b600067ffffffffffffffff8211156110705761106f610fda565b5b61107982610eaa565b9050602081019050919050565b82818337600083830152505050565b60006110a86110a384611055565b61103a565b9050828152602081018484840111156110c4576110c3610fd5565b5b6110cf848285611086565b509392505050565b600082601f8301126110ec576110eb610fd0565b5b81356110fc848260208601611095565b91505092915050565b6000806000806080858703121561111f5761111e610d8c565b5b600061112d87828801610db7565b945050602061113e87828801610db7565b935050604085013567ffffffffffffffff81111561115f5761115e610d91565b5b61116b878288016110d7565b925050606061117c87828801610db7565b91505092959194509250565b7f4e487b7100000000000000000000000000000000000000000000000000000000600052603260045260246000fd5b7f4e487b7100000000000000000000000000000000000000000000000000000000600052602260045260246000fd5b600060028204905060018216806111fe57607f821691505b602082108103611211576112106111b7565b5b50919050565b7f73746f7070656421000000000000000000000000000000000000000000000000600082015250565b600061124d600883610e6f565b915061125882611217565b602082019050919050565b6000602082019050818103600083015261127c81611240565b9050919050565b7f4e487b7100000000000000000000000000000000000000000000000000000000600052601160045260246000fd5b60006112bd82610d96565b91506112c883610d96565b92508282039050818111156112e0576112df611283565b5b92915050565b60006112f182610d96565b91506112fc83610d96565b925082820261130a81610d96565b9150828204841483151761132157611320611283565b5b5092915050565b7f656e646564210000000000000000000000000000000000000000000000000000600082015250565b600061135e600683610e6f565b915061136982611328565b602082019050919050565b6000602082019050818103600083015261138d81611351565b9050919050565b7f6e6f7420656e6f7567682066756e647321000000000000000000000000000000600082015250565b60006113ca601183610e6f565b91506113d582611394565b602082019050919050565b600060208201905081810360008301526113f9816113bd565b9050919050565b7f4e487b7100000000000000000000000000000000000000000000000000000000600052601260045260246000fd5b600061143a82610d96565b915061144583610d96565b92508261145557611454611400565b5b828204905092915050565b60006060820190506114756000830186610df9565b6114826020830185610df9565b61148f6040830184610fa6565b949350505050565b7f496e636f72726563742073617472696e67202070726963650000000000000000600082015250565b60006114cd601883610e6f565b91506114d882611497565b602082019050919050565b600060208201905081810360008301526114fc816114c0565b9050919050565b600061150e82610d96565b915061151983610d96565b925082820190508082111561153157611530611283565b5b92915050565b60008190508160005260206000209050919050565b60006020601f8301049050919050565b600082821b905092915050565b6000600883026115997fffffffffffffffffffffffffffffffffffffffffffffffffffffffffffffffff8261155c565b6115a3868361155c565b95508019841693508086168417925050509392505050565b6000819050919050565b60006115e06115db6115d684610d96565b6115bb565b610d96565b9050919050565b6000819050919050565b6115fa836115c5565b61160e611606826115e7565b848454611569565b825550505050565b600090565b611623611616565b61162e8184846115f1565b505050565b5b818110156116525761164760008261161b565b600181019050611634565b5050565b601f8211156116975761166881611537565b6116718461154c565b81016020851015611680578190505b61169461168c8561154c565b830182611633565b50505b505050565b600082821c905092915050565b60006116ba6000198460080261169c565b1980831691505092915050565b60006116d383836116a9565b9150826002028217905092915050565b6116ec82610e64565b67ffffffffffffffff81111561170557611704610fda565b5b61170f82546111e6565b61171a828285611656565b600060209050601f83116001811461174d576000841561173b578287015190505b61174585826116c7565b8655506117ad565b601f19841661175b86611537565b60005b828110156117835784890151825560018201915060208501945060208101905061175e565b868310156117a0578489015161179c601f8916826116a9565b8355505b6001600288020188555050505b505050505050565b60006080820190506117ca6000830187610df9565b81810360208301526117dc8186610ebb565b90506117eb6040830185610df9565b6117f86060830184610df9565b9594505050505056fea2646970667358221220c826274ea33c737ec39382363831815b4e2cc1325291fa510209b3d9bc6b85e964736f6c63430008130033",
  "linkReferences": {},
  "deployedLinkReferences": {}
}