{
  "_format": "hh-sol-artifact-1",
  "contractName": "Demo",
  "sourceName": "contracts/lesson7.sol",
  "abi": [
    {
      "inputs": [],
      "stateMutability": "nonpayable",
      "type": "constructor"
    },
    {
      "anonymous": false,
      "inputs": [
        {
          "indexed": true,
          "internalType": "address",
          "name": "_from",
          "type": "address"
        },
        {
          "indexed": false,
          "internalType": "uint256",
          "name": "_amount",
          "type": "uint256"
        },
        {
          "indexed": false,
          "internalType": "uint256",
          "name": "_timestamp",
          "type": "uint256"
        }
      ],
      "name": "Paid",
      "type": "event"
    },
    {
      "inputs": [],
      "name": "pay",
      "outputs": [],
      "stateMutability": "payable",
      "type": "function"
    },
    {
      "inputs": [
        {
          "internalType": "address payable",
          "name": "_to",
          "type": "address"
        }
      ],
      "name": "withdraw",
      "outputs": [],
      "stateMutability": "nonpayable",
      "type": "function"
    },
    {
      "stateMutability": "payable",
      "type": "receive"
    }
  ],
  "bytecode": "0x608060405234801561001057600080fd5b5061002b675899872008559ca860c01b61008a60201b60201c565b61004567c1a9e7c4bea8ca3b60c01b61008a60201b60201c565b336000806101000a81548173ffffffffffffffffffffffffffffffffffffffff021916908373ffffffffffffffffffffffffffffffffffffffff16021790555061008d565b50565b61057f8061009c6000396000f3fe60806040526004361061002d5760003560e01c80631b9265b81461005557806351cff8d91461005f57610050565b3661005057610046679f06bae83d45f0cf60c01b610088565b61004e61008b565b005b600080fd5b61005d61008b565b005b34801561006b57600080fd5b50610086600480360381019061008191906103f1565b610119565b005b50565b61009f67e67e5c444c96e4de60c01b610088565b6100b367ee8664501f11eac260c01b610088565b6100c767bb422409e1eb5a9b60c01b610088565b3373ffffffffffffffffffffffffffffffffffffffff167fdf9a51129930649214df58f542322c245372c6f2fa6fc3c9b40d927c597cd230344260405161010f929190610437565b60405180910390a2565b61012d6735909806cb07d6b460c01b610088565b806101426723eb0cb9a10ab4ae60c01b610088565b610156675a35467e3785fc9760c01b610088565b61016a671a8f487de618a02660c01b610088565b61017e67dcf3fbfc34cf58e460c01b610088565b60008054906101000a900473ffffffffffffffffffffffffffffffffffffffff1673ffffffffffffffffffffffffffffffffffffffff163373ffffffffffffffffffffffffffffffffffffffff161461020c576040517f08c379a0000000000000000000000000000000000000000000000000000000008152600401610203906104bd565b60405180910390fd5b61022067bdab40f97e9c4bd860c01b610088565b61023467e3885ed27902769160c01b610088565b61024867d5ebcb7c32ed551360c01b610088565b61025c6727e5d5c17389f1eb60c01b610088565b600073ffffffffffffffffffffffffffffffffffffffff168173ffffffffffffffffffffffffffffffffffffffff16036102cb576040517f08c379a00000000000000000000000000000000000000000000000000000000081526004016102c290610529565b60405180910390fd5b6102df67a9b47e37d52299f560c01b610088565b6102f3678a608752f799c77060c01b610088565b6103076769f6125125423be160c01b610088565b61031b67ec3c45e0aed8c16b60c01b610088565b61032f67ae6d7af804d56ced60c01b610088565b61034367d63e306bdcdf9c2160c01b610088565b8173ffffffffffffffffffffffffffffffffffffffff166108fc479081150290604051600060405180830381858888f19350505050158015610389573d6000803e3d6000fd5b505050565b600080fd5b600073ffffffffffffffffffffffffffffffffffffffff82169050919050565b60006103be82610393565b9050919050565b6103ce816103b3565b81146103d957600080fd5b50565b6000813590506103eb816103c5565b92915050565b6000602082840312156104075761040661038e565b5b6000610415848285016103dc565b91505092915050565b6000819050919050565b6104318161041e565b82525050565b600060408201905061044c6000830185610428565b6104596020830184610428565b9392505050565b600082825260208201905092915050565b7f796f7520617265206e6f7420616e206f776e6572210000000000000000000000600082015250565b60006104a7601583610460565b91506104b282610471565b602082019050919050565b600060208201905081810360008301526104d68161049a565b9050919050565b7f696e636f72726563742061646472657373210000000000000000000000000000600082015250565b6000610513601283610460565b915061051e826104dd565b602082019050919050565b6000602082019050818103600083015261054281610506565b905091905056fea2646970667358221220050bffa25064dde3e7905f570216bf7afe60fe10b572652d54fce26881051e7a64736f6c63430008130033",
  "linkReferences": {},
  "deployedLinkReferences": {}
}